:020000040800F2
:1000000000000120C5020008CB020008CF02000852
:1000100041030008450300088D03000800000000AC
:10002000000000000000000000000000D5030008F0
:10003000D903000800000000DD030008C90E000815
:10004000F1030008F1030008F1030008F1030008C0
:10005000F1030008F1030008F1030008F1030008B0
:10006000F1030008F1030008F1030008F1030008A0
:10007000F1030008F1030008F1030008F103000890
:10008000F1030008F1030008F1030008000000007C
:10009000000000000000000000000000F103000864
:1000A000F1030008F1030008F1030008F103000860
:1000B000F1030008F1030008F1030008F103000850
:1000C000F1030008F1030008F1030008F103000840
:1000D000F103000855110008F103000800000000BA
:1000E000F1030008F1030008F1030008000000001C
:1000F000000000000000000000000000F103000804
:1001000000000000F1030008F1030008F1030008FB
:1001100000000000000000000000000000000000DF
:10012000F1030008F1030008F1030008F1030008DF
:10013000F1030008000000000000000000000000C3
:10014000000000000000000000000000F1030008B3
:10015000F1030008F1030008F1030008A1110008F1
:10016000F1030008F1030008000000000000000097
:10017000000000000000000000000000000000007F
:1001800000000000F1030008000000000000000073
:10019000F103000800B583B000F0BAF9384B394AD2
:1001A0001360394A1360394900E02146384B9942BF
:1001B0000BD20A684B6801F10C0488689842F4D9A4
:1001C0001168196004330432F8E72E4B1A68314B7A
:1001D0009A4200D0FEE72C4B1A682F4B9A42F9D175
:1001E000274B2E4A13602E4A13602E4B05E0002049
:1001F000106004329342FAD80B462B4A934204D241
:10020000194651F8082B5B68F4E7244B1B6813B9B7
:10021000234B1B6803B1FEE700F086F9694601A88D
:1002200000F022F9214C224BE41AA4100025AC4224
:1002300014DC204C204BE41AA4100025AC4213DC43
:100240000099019801F0A0F805461C4C1C4BE41ADB
:10025000A410002C0EDC284600F0E2F8144B53F8F2
:10026000253098470135E2E7134B53F8253098477E
:100270000135E3E7013C124B53F824309847E8E797
:10028000BABADECA00000020C8000020F40300084B
:100290000C0400087856341232547698CC000020B2
:1002A0006C0100200C0400081C0400081C04000859
:1002B0001C0400081C0400081C0400081C0400089E
:1002C0001C04000808B5FFF765FF00BEFEE71EF03E
:1002D000040F0CBFEFF30880EFF309807146414A29
:1002E00010472DE9F04182B004468846124B5E6B00
:1002F0009F6B9D6A1B6B13F0020F03D00E4BDB6AE2
:10030000002B0CDB0D4800F0B7F8CDF800803B4621
:1003100032462946204600F00BF900BEFEE74BF6B8
:10032000AB6100F07FF90028ECD0034B4FF00042A6
:10033000DA6202B0BDE8F08100ED00E0B41D000813
:1003400000BEFEE71EF0040F0CBFEFF30880EFF3D2
:1003500009807146244A10472DE9F04182B00446D5
:100360008846084B5E6B9F6B9D6A074800F084F8D7
:10037000CDF800803B4632462946204600F0D8F8AA
:1003800000BEFEE700ED00E0C41D00081EF0040FF3
:100390000CBFEFF30880EFF309807146134A104752
:1003A0002DE9F04182B004468846084B5E6B9F6B96
:1003B0009D6A074800F060F8CDF800803B46324661
:1003C0002946204600F0B4F800BEFEE700ED00E04C
:1003D000D01D000800BEFEE700BEFEE700BEFEE73F
:1003E00070470000E302000859030008A103000859
:0403F00000BEFEE766
:1003F4009453020800000020CC000020945302080B
:100404000000001000000010CC000020700100204B
:080414000000001000000010C0
:10042000FEE7000008B503460C4A12685AB10B4AB1
:100430001068033323F003030344094A934206D8A8
:10044000064A136008BD054A06491160EFE700F04F
:10045000A1FF0C2303604FF0FF30F3E7D000002032
:1004600000FC00207001002001230360014B0B60A1
:10047000704700BF040000200FB400B583B004AB88
:1004800053F8042B01938021064800F0BDFF00289B
:1004900003DD0146034800F037F803B05DF804EBD4
:1004A00004B07047D80000202DE9F04385B0044621
:1004B0000F4643560BB10E461EE004252846214642
:1004C000ABBE0446384605B0BDE8F08314F9011B05
:1004D00004AA1A4402F8101C0133AB42F6D304AA52
:1004E0001344002203F8102C4FF00408E94640465C
:1004F0004946ABBE8046761B002EE3D03546102E13
:1005000028BF10250023E8E708B5FFF7CDFF08BD99
:1005100008B500F097F8024A024B9A6008BD00BF88
:100520000000000800ED00E008B500F0ABF808BDE1
:10053000F8B504460D4617461E462748FFF79CFFB0
:1005400021682648FFF798FF61682548FFF794FF68
:10055000A1682448FFF790FFE1682348FFF78CFF6C
:1005600021692248FFF788FF61692148FFF784FF6E
:10057000A1692048FFF780FFE1691F48FFF77CFF72
:100580001E48FFF779FF29461D48FFF775FF1D4CF0
:10059000E16A1D48FFF770FF216B1C48FFF76CFFF5
:1005A000E16B1B48FFF768FF15F0800F0AD115F4C7
:1005B000004F0CD11748FFF75FFF06991648FFF769
:1005C0005BFFF8BD39461548FFF756FFEFE73146A8
:1005D0001348FFF751FFEDE7981C0008A81C00081E
:1005E000B81C0008C81C0008D81C0008E81C00083B
:1005F000F81C0008081D0008181D0008281D000828
:10060000341D000800ED00E0441D0008541D0008E2
:10061000641D0008941D00089C1D0008741D00083E
:10062000841D000883691A888A4201D0002070471F
:100630000268033A012A03D802338361012070471C
:10064000002070470C4B1A6842F001021A6000212A
:1006500099601A6822F0847222F480321A60074A84
:100660005A601A6822F480221A60D960044B4FF055
:1006700000629A60704700BF0038024010300024CA
:1006800000ED00E0224B9B6803F00C03042B14D018
:10069000082B16D01BB11F4B1F4A1A6002E01D4BDE
:1006A0001D4A1A601A4B9B68C3F303131B4AD15CA3
:1006B000184A1368CB4013607047164B164A1A60ED
:1006C000F0E7134B5A685B6803F03F0312F4800FA6
:1006D00013D0114AB2FBF3F20D4B5B68C3F38813DE
:1006E00003FB02F30A4A5268C2F30142013252008C
:1006F000B3FBF2F3074A1360D4E7074AB2FBF3F205
:10070000034B5B68C3F3881303FB02F3EAE700BF04
:10071000003802400C0000200024F400E01D000816
:1007200008B500F0DBFA0021084600F0EBFA0121E1
:10073000002000F0E7FA0221002000F0E3FA0E2189
:10074000032000F0DFFA0C21032000F0DBFA042183
:10075000032000F0D7FA00F017F90521042000F07B
:1007600083F90521084600F07FF90521062000F0F5
:100770007BF90521072000F077F90721092000F017
:1007800073F907210A2000F06FF900F051FB00F027
:100790001FFB00F069FC252000F08EFA00F0E9FB59
:1007A00000F000FD08BD000010B5194A19491A48AB
:1007B00000F08EFD19491A4800F0A2FD00F0DEFDA0
:1007C000C0B2302804D0312808D0322817D010BD4C
:1007D000144800F0E1FB00F0E6F9F8E700F013FC44
:1007E000002409E0082202210F4800F053FA0120FA
:1007F00000F04EFB0134E4B2092CF3D9E7E700F036
:10080000D2F900F000FC0949094800F09FF9DEE741
:10081000F01D0008001E00080C1E0008101E000835
:10082000141E00083C1E000810000020CB9401009C
:100830003CBE0008A0F10D03DBB2022B40F29D800C
:10084000122800F09A80132800F09780142800F0F6
:10085000948070B4030900F00F00012B32D01BB15B
:10086000022B5DD070BC7047444B1D6844000322CE
:10087000A240D24315401D601D6801F00306A6404A
:1008800035431D60DD681540DD60DD68C1F381061C
:10089000A6403543DD605D680126864025EA0605F1
:1008A0005D605D688E0906FA00F02843586098681C
:1008B00002409A609A68C1F3011101FA04F41443EA
:1008C0009C60CFE72E4B1D6844000322A240D24318
:1008D00015401D601D6801F00306A64035431D60EC
:1008E000DD681540DD60DD68C1F38106A640354353
:1008F000DD605D680126864025EA06055D605D686D
:100900008E0906FA00F028435860986802409A6001
:100910009A68C1F3011101FA04F414439C60A1E741
:10092000184B1D6844000322A240D24315401D60AD
:100930001D6801F00306A64035431D60DD681540C3
:10094000DD60DD68C1F38106A6403543DD605D688A
:100950000126864025EA06055D605D688E0906FA77
:1009600000F028435860986802409A609A68C1F382
:100970000111A1401143996074E7704700000240E3
:10098000000402400008024010B5002408E004F111
:100990000D00094B195DC0B2FFF74CFF0134E4B202
:1009A000222C07D81F2CF2D8034B195D2046FFF7E5
:1009B00041FFF3E710BD00BF38000020A0F10D0398
:1009C000DBB2022B49D9122847D0132845D014286E
:1009D00043D0030900F00F00F9B101293DD1012BEB
:1009E0000BD013B1022B10D070471C494B69012268
:1009F00002FA00F003434B61704719494B69012229
:100A000002FA00F003434B61704716494B6901221B
:100A100002FA00F003434B617047012B0CD013B175
:100A2000022B12D070470D494B69012202FA00F0E7
:100A300023EA00034B61704709494B69012202FA1E
:100A400000F023EA00034B61704706494B6901221D
:100A500002FA00F023EA00034B61704700000240F5
:100A6000000402400008024030B4050900F00F0401
:100A7000072C30D8012D12D01DB1022D1DD030BC55
:100A800070472F48036AA4000F22A24023EA020302
:100A90000362036A01FA04F41C430462EFE7294885
:100AA000036AA4000F22A24023EA02030362036A3E
:100AB00001FA04F41C430462E1E72348036AA4003A
:100AC0000F22A24023EA02030362036A01FA04F43C
:100AD0001C430462D3E7012D22D08DB1022DCED16B
:100AE000194D6B6A00F0070080000F22824023EA54
:100AF00002036B626B6A01FA00F41C436C62BEE78E
:100B00000F4C636A00F0070082000F20904023EA38
:100B100000036362636A01FA02F21A436262AEE79B
:100B2000084A546A00F0070083000F20984024EA26
:100B300000005062506A01FA03F3034353629EE7D8
:100B400000000240000402400008024070B5064662
:100B50000D4603E0305D00F027F90134AC42F9D3D3
:100B600070BD08B501211820FFF728FF01211920C9
:100B7000FFF724FF01211A20FFF720FF01211C208D
:100B8000FFF71CFF01211D20FFF718FF01211E2088
:100B9000FFF714FF01211F20FFF710FF01212F2075
:100BA000FFF70CFF08BD08B5FFF7DBFF08BD10B568
:100BB000044600F001010820FFF700FFC4F34001E4
:100BC0000B20FFF7FBFEC4F380010C20FFF7F6FEBD
:100BD000C4F3C0011320FFF7F1FEC4F30011142089
:100BE000FFF7ECFEC4F340111520FFF7E7FEC4F356
:100BF00080111620FFF7E2FEE1091720FFF7DEFE65
:100C000010BD38B50546002409E000211820FFF783
:100C1000D5FE40F6C41000F03BF90134E4B2072CD5
:100C200037D8FFF79EFF285DFFF7C1FF002CECD0FF
:100C3000012C10D0022C13D0032C16D0042C19D068
:100C4000052C1CD0062C1FD0072CE2D100212F2010
:100C5000FFF7B4FEDDE700211920FFF7AFFED8E76C
:100C600000211A20FFF7AAFED3E700211C20FFF77E
:100C7000A5FECEE700211D20FFF7A0FEC9E7002159
:100C80001E20FFF79BFEC4E700211F20FFF796FE02
:100C9000BFE738BD70B5064601FB02F5002407E04A
:100CA0003019FFF7AEFF1E2000F0FEF80134E4B269
:100CB000A3B2AB42F4D370BD10B44409064951F855
:100CC000243000F01F00012202FA00F0184341F81E
:100CD000240010BC704700BF00E100E0084A136820
:100CE00043F001031360064B1B6813F0020FFAD0A8
:100CF000034B9A6822F003029A609A689A607047E0
:100D00000038024004282BD8DFE800F0030B131B47
:100D100023001448036B012202FA01F11943016315
:100D200070471048436B012202FA01F119434163F5
:100D300070470C48036C012202FA01F11943016467
:100D400070470848436C012202FA01F119434164DB
:100D500070470448036D012202FA01F1194301654D
:100D6000704700BF0038024008B501210846FFF770
:100D700025FE012000F08CF800210120FFF71EFE67
:100D8000012000F085F808BD08B501210220FFF719
:100D900015FE012000F07CF800210220FFF70EFE76
:100DA000012000F075F808BD38B5054607240AE0B3
:100DB00045FA04F101F001010020FFF7FFFDFFF704
:100DC000D3FF013C64B2002CF2DAFFF7DDFF38BD3F
:100DD0000D4B1A6822F038021A601A681A601A68F5
:100DE00042F002021A601A6822F001021A601A68C0
:100DF00022F400621A601A6822F080021A601A68EF
:100E000042F044021A60704700300140074B9B6873
:100E100013F0020FFAD0054BD860044B9B6813F017
:100E2000010FFAD0014BD86880B270470030014002
:100E3000024A136823F004031360704710E000E0D7
:100E4000044B586000229A601A6842F001021A604E
:100E5000704700BF10E000E0044B00225A609A6027
:100E60001A6822F001021A60704700BF10E000E02B
:100E7000024B1868C0F30040704700BF10E000E06C
:100E8000024A136823F002031360704710E000E089
:100E900010B54400FFF7F4FF2046FFF7D1FFFFF73E
:100EA000E7FF0028FBD010BD10B54FF4FA6404FB37
:100EB00000F4FFF7E5FF2046FFF7C2FFFFF7D8FF7A
:100EC0000028FBD010BD000008B50B4B1B785BB9A8
:100ED0000A4B1B68022B04D09847FFF7D1FFFFF79E
:100EE000BBFFFFF7C5FF08BD012BFAD1034B1B6801
:100EF000022BF6D09847F4E75C010020580100204F
:100F000008B501212D20FFF759FD6420FFF7C0FF30
:100F100000212D20FFF752FD0320FFF7B9FF01212B
:100F20002D20FFF74BFD6420FFF7B2FF00212D209D
:100F3000FFF744FD6420FFF7ABFF01212D20FFF7F1
:100F40003DFD7820FFF7B0FF08BD10B50446012134
:100F50002E20FFF733FD2046FFF758FF10BD10B5D8
:100F6000044600212E20FFF729FD2046FFF74EFF03
:100F700010BD08B5FFF7C4FF1120FFF7F0FF0A20EE
:100F8000FFF792FF3A20FFF7EAFF0520FFF7DDFFAA
:100F90002920FFF7E4FF08BD70B506462A20FFF7B9
:100FA000DEFF0020FFF7D1FF0020FFF7CEFF00207B
:100FB000FFF7CBFF7F20FFF7C8FF2B20FFF7CFFF06
:100FC0000020FFF7C2FF0020FFF7BFFF0020FFF760
:100FD000BCFF9F20FFF7B9FF2C20FFF7C0FF0024C4
:100FE0000DE036F81400C5B26FEA1020C0B2FFF76A
:100FF000ACFFE843C0B2FFF7A8FF0134A4B2B4F5D8
:10100000A04FEED370BD10B52A20FFF7A8FF002037
:10101000FFF79BFF0020FFF798FF0020FFF795FFE9
:101020007F20FFF792FF2B20FFF799FF0020FFF7AB
:101030008CFF0020FFF789FF0020FFF786FF9F202D
:10104000FFF783FF2C20FFF78AFF002407E0FF2033
:10105000FFF77BFFFF20FFF778FF0134A4B2B4F560
:10106000A04FF4D310BD0000124BDA6822F4004206
:10107000DA600B229A609A6842F080029A60DA681D
:1010800022F48052DA60DA6822F48062DA601A6947
:1010900022F440521A611A691A61DA6842F00802B1
:1010A000DA60DA6842F00402DA60DA6842F4005288
:1010B000DA60704700100140034B1B6813F0800F8B
:1010C000FAD0014B5860704700100140044B1B6878
:1010D00013F0200FFAD0024B586880B2704700BF5F
:1010E00000100140002319460A4A126812F0200F2E
:1010F00006D129B90133084A9342F5D90121F3E712
:1011000019B10023038008467047024B5B680380D7
:10111000F9E700BF0010014040420F0038B5054616
:10112000002403E0FFF7C8FF0134E4B2285D002883
:10113000F8D138BD38B50546FFF7D4FF002404E0E8
:101140000134E4B22819FFF7CDFF2B5D002BF7D156
:1011500038BD000008B50F4B1B6813F0400F09D0D5
:101160000D4B1B68022B00D098470A4A136823F0E6
:1011700040031360074B1B6813F0200F09D0074B87
:101180001B68022B00D09847024A136823F0200303
:10119000136008BD00100140600000205C000020CA
:1011A0007047000000B59BB06422002101A800F048
:1011B000F7F80F48FFF7B2FF01A8FFF7BBFF9DF854
:1011C00006304F2BF5D19DF807304B2BF1D1094854
:1011D000FFF7A4FF01A8FFF7ADFF9DF806304F2BE6
:1011E000F5D19DF807304B2BF1D11BB05DF804FB16
:1011F000485302085053020830B59BB005460C46D0
:101200006422002101A800F0CBF81348FFF786FF05
:101210002846FFF783FF1148FFF780FF2046FFF7BE
:101220007DFF0F48FFF77AFFFFF750FF8DF80400AE
:101230000DF10500FFF77EFF9DF806304F2B02D021
:1012400001201BB030BD9DF807304B2B01D0012091
:10125000F7E70020F5E700BF345302082C530208DB
:101260004053020830B59BB005460C46642200216D
:1012700001A800F095F81348FFF750FF2846FFF744
:101280004DFF1148FFF74AFF2046FFF747FF0F4881
:10129000FFF744FFFFF71AFF8DF804000DF105007A
:1012A000FFF748FF9DF80F304F2B02D001201BB0F5
:1012B00030BD9DF810304B2B01D00120F7E7002006
:1012C000F5E700BF1C530208305302084C530208D4
:1012D00070B505460C4616460123012B0CD121465C
:1012E0002846FFF789FF03460028F6D10349304618
:1012F000FFF7B8FF0346F0E770BD00BF4453020894
:1013000030B5ADF2D47D05460C464FF4FA620021AB
:10131000684600F045F81548FFF700FF2046FFF744
:10132000FDFE134C2046FFF7F9FEFFF7CFFE8DF8C8
:1013300000000DF10100FFF7FDFE0E48FFF7EEFE85
:101340002846FFF7EBFE2046FFF7E8FEFFF7BEFE5C
:101350008DF800000DF10100FFF7ECFE9DF8142060
:10136000054B1A700DF2D47D30BD00BF0853020842
:101370004C530208145302085D010020014B1878F9
:10138000704700BF5D01002008B5FFF7C9F9FFF7FE
:101390000BFAFCE7014B1868704700BF640000209F
:1013A00002440346934200D1704703F8011BF9E75A
:1013B00030B5141E05469BB0184605DA8B232B600A
:1013C0004FF0FF301BB030BD4FF40273ADF80C305E
:1013D00014BF04F1FF332346029305934FF6FF73C6
:1013E00000910491ADF80E3002461E9B69462846D6
:1013F00000F072F8431CBCBF8B232B60002CE1D0A3
:10140000009B00221A70DDE707B5009313460A46D9
:10141000014603480068FFF7CBFF03B05DF804FB0B
:10142000640000202DE9F0478E689E4282460C46FB
:101430009046994637D88A8912F4906F31D0256842
:1014400009696F1A6569022305EB450595FBF3F5FC
:1014500009F101033B449D4238BF1D46530530D579
:10146000294600F07FFB064650B90C23CAF800302D
:10147000A38943F04003A3814FF0FF30BDE8F0871C
:101480003A46216900F0FCFAA38923F4906343F003
:101490008003A381266165613E44ED1B2660A56043
:1014A0004E464E4500D94E4632464146206800F031
:1014B000F2FAA3689B1BA36023681E4426600020E9
:1014C000DCE72A4600F0A8FB06460028E2D12169A5
:1014D000504600F0F9FAC8E72DE9F04F9DB080467C
:1014E00003938B891D060C4616460FD50B696BB905
:1014F000402100F037FB2060206128B90C23C8F898
:1015000000304FF0FF30C7E04023636100230993B0
:1015100020238DF8293030238DF82A304FF0010B2D
:1015200037463D4615F8013B0BB1252B3ED1B7EBB5
:10153000060A0BD05346324621464046FFF772FF5B
:10154000013000F0A480099B534409933B78002BA1
:1015500000F09D8000234FF0FF32CDE90523049376
:1015600007938DF853301A932F46052217F8011B65
:101570004F4800F035FA049BD0B9D90644BF202269
:101580008DF853201A0744BF2B228DF853202A7858
:101590002A2A15D0079A2F4600200A25394611F825
:1015A000013B303B092B4DD9B8B10FE02F46B8E7CE
:1015B0003F4A801A0BFA00F0184304903D46D3E7E7
:1015C000039A111D12680391002A01DB079204E0BF
:1015D000524243F00203079204933B782E2B0CD126
:1015E0007B782A2B33D1039B1A1D1B680392002B97
:1015F000B8BF4FF0FF33023705932E4D39780322E1
:10160000284600F0EDF938B14023401B03FA00F002
:10161000049B034301370493397827488DF8281039
:1016200006227E1C00F0DCF9002838D0234B13BBC7
:10163000039B073323F0070308330393099B4B44B1
:1016400009936DE705FB023201200F46A6E7002350
:101650000137059319460A25384610F8012B303A10
:10166000092A03D9002BC8D00591C6E705FB012143
:1016700001230746F0E703AB00932246104B04A971
:101680004046AFF30080B0F1FF3F8146D6D1A38939
:101690005B063FF536AF09981DB0BDE8F08F03AB90
:1016A00000932246064B04A9404600F081F8EAE781
:1016B00060530208665302086A53020800000000E3
:1016C000251400082DE9F04791461F468A680B69EA
:1016D000DDF820809342B8BF1346C9F8003091F876
:1016E000432006460C4612B10133C9F80030236886
:1016F000990642BFD9F800300233C9F80030256896
:1017000015F0060507D104F1190AE368D9F800209D
:101710009B1AAB4228DC94F843302268003318BF90
:10172000012392062DD404F1430239463046C047C6
:10173000013020D02368E568D9F8002003F00603C3
:10174000042B08BFAD1AA36822690CBF25EAE57512
:1017500000259342C4BF9B1AED184FF000091A34BC
:101760004D451AD1002008E0012352463946304643
:10177000C047013003D14FF0FF30BDE8F08701359D
:10178000C3E7E1185A1C302081F84300224494F842
:10179000451082F843100233C5E70123224639463B
:1017A0003046C0470130E6D009F10109D8E7000012
:1017B0002DE9F04301F1430C0C46097E85B06E29FA
:1017C0001746064698460C9A00F0B38022D8632943
:1017D00036D00AD8002900F0B980582900F083805B
:1017E00004F1420584F8421032E0642901D06929ED
:1017F000F6D120681368050603F104012AD51B6899
:101800001160002B03DA2D225B4284F843206F48DD
:101810000A2239E0732900F09D8008D86F2920D072
:101820007029DDD1236843F02003236003E075298C
:1018300017D07829D4D1782384F84530644855E00E
:101840001368191D1B68116004F1420584F84230C9
:1018500001238CE01B68116010F0400F18BF1BB211
:10186000CFE713682568181D1060280601D51B688E
:1018700002E06806FBD51B8854486F2914BF0A2272
:101880000822002184F843106568A560002DC0F28D
:101890009580216821F004012160002B3DD1002DAD
:1018A00040F08E806546082A0BD12368DB0708D5F7
:1018B000236962689A42DEBF302305F8013C05F1D6
:1018C000FF35ACEB05032361CDF800803B4603AA4E
:1018D00021463046FFF7F6FE01304DD14FF0FF3084
:1018E00005B0BDE8F083394884F8451013682168D5
:1018F0001D1D1B6815600A060BD5CA0744BF41F0C1
:10190000200121601BB9226822F0200222601022EF
:10191000B7E74D0648BF9BB2EFE76546B3FBF2F170
:1019200002FB1133C35C05F8013D0B460029F5D1DC
:10193000B9E7136825686169181D106028061B68DF
:1019400001D5196002E06A06FBD5198000232361E6
:101950006546B9E71368191D11601D6862680021AA
:10196000284600F03DF808B1401B606063682361C1
:10197000002384F84330A7E723692A4639463046D6
:10198000C0470130AAD023689B0713D4E068039BAB
:101990009842B8BF1846A3E701234A463946304665
:1019A000C04701309AD00135E368039A9B1AAB42D5
:1019B000F2DCEBE7002504F11909F5E7002BACD1C7
:1019C000037884F8423004F142056CE77153020851
:1019D0008253020800000000000000000000000028
:1019E00001F0FF01102A2BDB10F0070F08D010F8D0
:1019F000013B013A8B422DD010F0070F42B3F6D1D4
:101A0000F0B441EA012141EA014122F007047FF0EC
:101A100000070023F0E80256083C85EA010586EA43
:101A2000010685FA47F5A3FA87F586FA47F6A5FA7F
:101A300087F68EB9EED1F0BC01F0FF0102F007028B
:101A400032B110F8013B013A83EA010313B1F8D136
:101A50000020704701387047002D06BF3546033817
:101A6000073815F0010F07D1013015F4807F02BF50
:101A7000013015F4C03F0130F0BC0138704700BFA1
:101A800010B5431E0A44914200D110BD11F8014B1C
:101A900003F8014FF7E7884210B501EB020307D8BE
:101AA000421E99420AD011F8014B02F8014FF8E7A3
:101AB0008342F5D98118D21AD34200D110BD13F850
:101AC000014D01F8014DF7E738B50546002945D02D
:101AD00051F8043C0C1F002BB8BFE41800F0D2F8FA
:101AE0001F4A1368104633B9636014602846BDE886
:101AF000384000F0C8B8A3420CD92168621893425C
:101B000004BF1A685B68636004BF521822600460F7
:101B1000ECE713465A680AB1A242FAD91968581874
:101B2000A0420BD120680144581882421960DDD1CF
:101B3000106852685A6001441960D7E702D90C2333
:101B40002B60D3E7206821188A4204BF11685268CD
:101B5000626004BF091821605C60C7E738BD00BF40
:101B60006001002070B5CD1C25F0030508350C2D53
:101B700038BF0C25002D064601DBA94203D90C23F2
:101B80003360002070BD00F07DF8214A14682146C2
:101B900091B9204C23681BB9304600F063F82060EF
:101BA0002946304600F05EF8431C24D10C233360F4
:101BB000304600F068F8E4E70B685B1B18D40B2B89
:101BC0000FD90B60CD50CC18304600F05CF804F112
:101BD0000B00231D20F00700C31AD3D05A42E25055
:101BE000D0E78C424B6816BF636013600C46EBE78E
:101BF0000C464968CCE7C41C24F00304A04205D07D
:101C0000211A304600F02EF80130CFD02560DBE7F6
:101C10006001002064010020F8B5074614460E4616
:101C200021B91146BDE8F840FFF79CBF22B9FFF784
:101C30004BFF25462846F8BD00F026F8A0420FD2FB
:101C400021463846FFF78EFF05460028F2D0314680
:101C50002246FFF715FF31463846FFF735FFE9E723
:101C60003546E7E738B5064C0023054608462360AD
:101C7000FEF7D8FB431C02D1236803B12B6038BDAB
:101C8000680100207047704751F8043C181F002B72
:101C9000BCBF0B58C0187047537461636B206672E9
:101CA000616D653A0A000000205230203D20202559
:101CB0003038580A00000000205231203D202025F5
:101CC0003038580A00000000205232203D202025E4
:101CD0003038580A00000000205233203D202025D3
:101CE0003038580A0000000020523132203D2025B3
:101CF0003038580A00000000204C52203D2020259A
:101D00003038580A00000000205043203D20202594
:101D10003038580A0000000020505352203D202542
:101D20003038580A000000004653522F4641523ABC
:101D30000A0000002043465352203D202025303821
:101D4000580A00002048465352203D2020253038B4
:101D5000580A00002044465352203D2020253038A8
:101D6000580A00002041465352203D20202530389B
:101D7000580A0000204D4D464152203D2025303864
:101D8000580A00002042464152203D20202530388C
:101D9000580A00004D6973630A000000204C522F5E
:101DA0004558435F52455455524E3D2025303858D2
:101DB0000A0000005B486172644661756C745D0ADC
:101DC000000000005B4275734661756C745D0A002B
:101DD0005B55736167654661756C745D0A00000050
:101DE00000000000000000000102030406070809CB
:101DF0003138352E3137362E34332E313132000022
:101E000031323334353637380000000061000000CD
:101E100034350000687474703A2F2F746F6C6269E7
:101E20006E6F2E617477656270616765732E636F84
:101E30006D2F77726974652E74787400B0B4D1B464
:101E400032C570ACF5DDF5DDF5DDD5D5F5DDB4D504
:101E500094D553CD32C512C574CD33C533C5D5DD48
:101E6000B4D5D5DD15DE56E673CD4EAC4EACD0BC48
:101E700032CD73CDB4D594D5B4D532C50F940B7390
:101E80002C73319439CE9BD69CD6BDDEBDDE9DDE53
:101E9000BDDEBDDE9CD67CD69CD69CD69CD69CD680
:101EA0009CD69CD69DD69DD69DD69DD67CD63BCE27
:101EB0005CCEBDDE9CD67CD6DDDE9DD6BDDE9CD65E
:101EC0005BCE5BCEDDDE9CD6BDDEBDDEBDDE9DD64F
:101ED0009CD65BCEB8BD16A516A536AD14B52D7B28
:101EE00091ACD5D5B4D5F4DD35E635E616E6B5D5F5
:101EF000F6DD54C5D1B46FAC73CDB3CDB4D5D4D564
:101F0000B4D5B4CD94CD94CDB5D5F5DDF5DD74CD96
:101F100073CDB5D5D5D594CD74CD94CD94CDB5D55F
:101F2000B5D5B5D5B5D594CD94CDB5D5B5D553C525
:101F3000C9724762EA7A8C8BEE9B4FA433C5F1BC21
:101F4000D1BC4FA4F5DDD5D5D5DDF5DDF5DDF5DD6D
:101F500073CD94D533C532C553CD73CD53CDD5DDB7
:101F6000B4D5D5DD15DE56EE94D54EAC0DA4B0B487
:101F700032CD73CDB4D594D594D532C5AD83EB7243
:101F80000C6B108CF8C55ACE9CD6BDDEDDDEBDDEF6
:101F9000BDDEBDDE9CD67CD69CD69CD69CD69CD67F
:101FA0009CD69CD69DD69DD6BDDEBDDE9DD65CCE94
:101FB0005CCEBDDE9DD67CD6DDDE9DD6DDDEBCD61C
:101FC0007BCE5BCEBDDE9CD6BDDEBDD6BDD69CD65F
:101FD0007CD63BCE98B536AD36AD57AD14B52D7B1E
:101FE00071A4F6D5D4D515E635E636E6F5E5B5D5D2
:101FF000D5DD74CDF2BC90AC93CDB4D5D5D5D5D5C7
:10200000B4D594CD74CD94CDB5D5D5D5B4D594CD26
:1020100094CDB5D5B5D574CD74CD74CD74CD94CDE6
:1020200074CD74CD74CD74CDB5D5F6DD94CD94CD8D
:102030002A834762686A2A83ED9B4FA4F2BC12C5CB
:1020400012BD2EA4F5DDF5DD15DE15DED5DDF5DDE1
:1020500093CD93CD53CD53CD33C553CD74CDB5D59D
:10206000B5D5B4D515E656EED5DD8FB4AC934EACF0
:1020700032CD73D5B4D594D573D552CDCE8B2B73C9
:102080000B6BF08BF8C57BD6BDDEBDDEDDDEBDDEC5
:10209000BDDEBDDE9CD67CD67CD67CD69CD69CD6BE
:1020A0009CD69CD69DD69DD69DD69CD67CD67CD6DD
:1020B0003BCEBDDEBDD65CCEBDDE9CD6FDDEBDDE3C
:1020C0007CD67CD6BDDE9CD6BDDEBDDEBDDE9DDE13
:1020D0007CD63BCE98B536AD57AD57ADF4AC2C7B26
:1020E00050A4D5D5B4D5F4DD35E615E6D5DDB4D5A7
:1020F000D5D574CDF2BCB0B4B4CDD4D5D5D5D5D565
:10210000B4D5B4CD94CD94CDB5D5D5D594CDD5D5C4
:10211000F5DDB5D594CD74CD74CD74CD94CDB5D554
:10212000B5D5B5D5D5D5B5D5D5D5F6DD94CD94CD28
:10213000AD93E97AA872EA7AAC930E9C90B412BD82
:10214000F1BCEE9BF5DD16DE16E6F5DDD4DDD4DD63
:10215000B4D553CD53CD33C574CD32C574CD94D5DC
:10216000D5DDB4D515DE36E636E6F1BC8B8B0DA495
:1021700032C573D5B4D594D573CD73CD0E942B736E
:102180000B73CF8397BD9CD6BCDEBDDEBDDEBDD656
:10219000BDDEBDDE7CD67CD69CD69CD69CD69CD69D
:1021A0009DD6BDD69DD69DD69CD69CD67CD67CD6BB
:1021B0001BC69CD6BDDE5BCEBDDE9CD6DDDEBDDEA5
:1021C0007BCE7CD6BDDE9CD6BDDEDDDEBDDE9DDEFB
:1021D0009CD63BCEB8BD57AD57AD56AD15B56E8349
:1021E000509CF6D5D5D5F5DD36E636E6B4D594D592
:1021F000D5D574CDD1B4B0B4B4D5D4D5D5D5D5D585
:10220000B4D5B4D5B4D5B4D5B5D5B5D5B4D5F6DD3A
:1022100016DEB4D553C553C574CD94CDF6DDF6DDC9
:10222000D5D5B5D5B5D594CDB5D5D5D5B5D594CD70
:10223000ED9BAC936C8B2B836C8B8C8BF2BCD1B4F1
:102240002FA4CD93F5DD16E616DE36E615DEB4D501
:1022500094D573CD53CD32C594D532C574CD94D5B4
:10226000D5DDB5D5F5DD36E656EE73CDAC93CC9B1A
:1022700011C573D5B4D594D573CD94D5509C2B7B13
:102280002C738E7B35AD9CDEBCDEFEE6BDD69DD6C6
:10229000BDDEBDDE9CD69CD69DD69CD6BCD6BCD61B
:1022A000BDDEBDDEBDDEBDDEBDDEBDDE7CD67CD6E8
:1022B0003BCEBDD6BDDE7CD6BDDE9CD6BDDEBCD65B
:1022C0005BCE9CD6BDDEBDDEDDDEFEE69CD67CD6DA
:1022D0007CD63BCEB8BD77B557AD57AD55BDAF8BAE
:1022E000309CD5D5B4D5F5DD56E636E694D5B4D5D3
:1022F000F6DD74CDB1B4D0B4D4D5F5DDD5D5D5D512
:10230000D5D5D4D5B5D5B5D5B4D5B4D5D5D5D5D500
:10231000D5D574CD53C553C594CDB5D5D5D5F6DD3A
:10232000D5D5B5D5B5D594CD94CDB4D5D5D594CD99
:10233000ED9BAD93CD938C8BAC938C8BF2BC12BD8B
:102340004FA40E9CD5DD36E636E636E636E6B4D545
:1023500052CDB4D553CD32C553CD53CD94D5B5D58B
:10236000D5DDD5DDD5DDF5DD36E6D4DD2EA48B93C8
:10237000F1BC73D594D594D573CD94D512B54C7B5F
:102380000B736D7BD4A49BD6BDDEBDDE9CD69CD6E4
:10239000BDDEBDD69CD69CD69CD67CD67CD69CD6A3
:1023A0009CD69DD6BDD6BDDE9DD69DD69DD65CCE97
:1023B0005CCEBDDEBDDE9CD6BCD69CD6DDDEBDDEF1
:1023C0007BCEBCD6DDDEDEDEFEDE1EE7BDDE9DDEC4
:1023D0007CD61AC698B577B577B557AD55BDEF938E
:1023E0000F94B5CD94CDD5DD36E615E673CDD5D5B4
:1023F000F6DD74CDB0B4F1BCD5DDF5DDF5DDF5D598
:10240000F5D5D5D5D5D5B5D594CD94CDD5D5D5D50E
:1024100094CD73CD74CD94CDB5D5D5D574CDB5D57A
:10242000D5D5D5D5F6DDD5D5B5D5B5D594CD94CD05
:10243000EE9B8C8BCD93CD93EE9BAC93B0B412C539
:1024400090AC90ACD5D557E636E636E636E6F5DD07
:1024500052CD73CD53CD32C532C574CD94D5B5D5DB
:10246000B5D5F5DDD5DDF5DD15E615E6B0B46B8B3C
:10247000D0BC93D593D594D553CD73CD74C5CE8BA5
:102480000B736D7B7294D8C59CD65BCE7CD69CD6E4
:10249000BDD6BDDE9CD69CD69CD67CCE7CD67CD6CA
:1024A0007CD69CD69CD69DD69DD69DD69DD61BC649
:1024B0005CCE9CD69CD69CD69CD69CD6DDDEBDDE62
:1024C0005BCE9CD6BDDEFEDEFEE61EE7FEDEBDDE9A
:1024D0007CD61AC698B577B577B556AD96C5519CDA
:1024E000309CD6D5B5CDF5DD56E6F5DD53CDD5D549
:1024F000F6DD74CDB0B432BDF5DDD5DDF5DDF5DD4D
:10250000F5DDF5D5D5D5B4D5B4D594CDD5D5D5D5BE
:10251000B4D574CD94CDD5D5D5D5B5D594CD94CDF0
:1025200074CD74CD94CDD5D5F6DDF6DD53C594CDFF
:10253000EE9B4B83ED9BEE9B2EA4EE9BB0B4D1B4EF
:102540000EA4B1B4D5DD36E615DE36E616E657EE56
:1025500094D5F1BC94D553CD53CD94D594D5B5D560
:1025600094D5F5DDF5DDF5DDF5DD36E6F1BC6B8BFB
:10257000B0B494D593D594D553CD52CDB5CD90ACC0
:10258000AE8B1094118CF5A47BD67BD67CD69CD6D2
:10259000BDDEDDDEBDDEBDD6BDDE9CD6BCD6BCD686
:1025A000BDDEBDDEBDDEBDDEBDDEBDDE7CD6DABDA0
:1025B0005BCE9CD67CD6BDDE9CD6BCD6BDDE9CD682
:1025C0003AC67CD69CD6DDDEDDDEFEE6DDDEBDDE97
:1025D0007CD6FAC598B577B577B536AD75BD719C23
:1025E000309CD6CD94CDD5D536E6B4D532C5B4D54C
:1025F000D5D553C5B0B453C516DED5D5F5DDF5DD5B
:10260000F5DDF5D5D5D5B4D5B4D5B5D5B5D5D5D5B4
:10261000B4D594CDB5D5D5D5D5D574CD94CDB5D5C6
:1026200094CD94CDB5D5D5D5D5D5F5DDB4D594CD4E
:10263000CD932B83ED9BED9B4FA44FA412BD33C5CF
:10264000B1B4B1B4D5D516DE36E616E636E636E6D2
:1026500016E6D0BC53CDB4D574CD73CDB4D5B4D5B6
:10266000B4D5D5DDD4DDD4D5F5DD36E632C5AC93B1
:102670006FAC73D594D553CD73D553CD94CD53C58D
:10268000AD8B3094729C529498BD7BD65BCE9CD619
:102690009DDEBDDEBDDEBDDE9CD6FEDEBDDEBDDE6A
:1026A000DDDEBDDEDDDEDDDEFEDE9DD63BCEFAC547
:1026B0009CD69DD6BDD6DDDEDDDEDDDEDDDE9CD644
:1026C0003BCE7CD69CD6BDDEDDDEBDDE9DD65CCEAF
:1026D0003BCED9BD57ADB8BD77B597B534BD91A444
:1026E00013B5B5CD53C5D5D516DE53CD32C5F5DD01
:1026F000D5D573CDD1B4B4D5F5DDF5DD15DE15DE58
:10270000F5DDF5DDD5D5D5D5B5D5B5D5B5D5B5D5A9
:10271000B5D5B5D5D5D5D5D594CD94CD94CDB5D5A4
:10272000B5D5B5D5F6DDF6DDB5D594CDB4D573CD3B
:102730008C8B2A838C8BED9B2FA490AC90B4D1B45E
:102740004FACD1B4D5DDF5DD36E6F5DD36E636E65F
:1027500016E612C512C594D553CD53CD74CD94D57C
:10276000B4D5D5DDF5DDD5DD15DE36E673CDCC9BF4
:102770006FAC73CDB4D573CD93D553CD73CD94CD0C
:1027800050A4CE8B729CF08BF5A43ACE5BD67CD64F
:102790009CD6BDDEBDDEDDDE9DD6DEDEBDDEBDDE71
:1027A000DDDEBDDEDDDEBDDEDDDE7CD6DABDD9BD43
:1027B000BDD6BDDEDDDEDDDEFEE6FDDEDDDE9CD689
:1027C0003BCE9CD69CD6BDDEDDDEBDDEBDDE7CD63E
:1027D0003BCED9C577B598B557AD97B5F2AC91A4B6
:1027E00054BDF6D5B5D516DE36E673CD12BDF5DD92
:1027F000D5D573C5D1B4B5D5F6DDF6DD16DE15DE5B
:10280000F5DDF5DDD5D5D5D5D5D5D5D5B5D5B5D568
:10281000B4D5B4D5B5D594CD74CD94CDB5D5B5D505
:10282000B5D5D5D5F6DDD5D5B5D5B4D5D5D594CDD9
:102830000E9C0A7B2B83EE9B4FA46FAC94CD94CD62
:1028400090B432C5D5D5D5D515DE16DE16E636E6FA
:1028500016E693D5D1BC94D573CD53CD73CD94D515
:10286000B4D5F5DDF5DDF5DD15E636E6B4D50DA418
:102870004EAC73CDB4D573D594D553CD52CDB4D51C
:1028800033BDAD8B719CD0833294B8BD5BCE7BD60B
:102890007CD6DDDEBDDEDDDEBDD6DDDEDDDEBCD63A
:1028A000BDDE9CD6BDDEBDD6BDD65BCED9BDDABD04
:1028B000BDDEDDDEDDDEFDDEFEE6FDDEFEE6BCD6F7
:1028C0005BCEBDDE9CD69CD69DD6BDDEDDDE7CD645
:1028D0003BCEFAC598B598B577B598B5B1ACB1AC63
:1028E00094CDD6D5B5D516DE57EE94CD11BDD5D540
:1028F000D4D553C5F1BCB5D5F6DDF6DD16DE16DE52
:1029000015DEF5DDF5DDD5D5D5D5D5D5F5DDD5D5B6
:10291000B4D594CD94CD74CD74CDB5D5D5D5B5D52C
:10292000D5D516DEF6DDD5D5D5D5D5D594CD94CD76
:10293000B0B4E97A0A7BAD932FA4B0B4F2BCF2BC78
:102940004FA453C5D5DDD5D515DE36E615E616E61A
:1029500016E6D5DDD1BC74CDB5D574CD94D594D55E
:10296000B5D5D5DDD4DDD5DD15DE36E6F5DD4EA4F5
:102970004EAC73CDB4D593D594D553CD52CD93D51C
:1029800094CD0F9C309C1094D083D5A41ACE5BD6E6
:102990007BD6BDDEBDDEBDDEBDDEDDDEDDDEBCD672
:1029A000BDDE9CD6BDDE9DD69CD63BCEB9BDD9BD85
:1029B000BDDEDDDEFDDEFEE6FEE6FDE6DDDE7CD62E
:1029C0003BCEBDDE9DD69CD69CD6BDD6DEDE7CD66B
:1029D0001AC61AC6D9BD98B598B5B8BD90ACF1B4B1
:1029E000B5D5B5D5B5D516E657EE94D512BDD4D527
:1029F000B4D573C5F1BCD5D5F6DDF6DD16DE16DE31
:102A0000F5DDF5DDF5DDF5DDF5DDF5DDF5DDD5D55E
:102A1000B5D5B4D594CD53C574CDB5D5B5D5B5D54B
:102A2000F6DD16DED5D594CDB5D5B5D594CD94CDFE
:102A300012BD0A7BEA7A8C8B2EA4F2BC53C533C537
:102A400090AC74CDD5D5B4D5D5D5F5DD16E615E663
:102A500036E6F5DD12C553CDF5DDB4D594D5B4D544
:102A6000B5D5B5D5B4D5D4DDF5DD36E6F5DD6FAC3D
:102A70004EAC73D5B4D573CD93D553CD93D553CD3B
:102A8000B4D5F2B4CF8B3194D083128CB8C55BD659
:102A90007CD6DDDEBDDEBDDEDDDEDDDEDDDEBCDE28
:102AA000DDDEBDDEDDDE9DD69CD63BCE98B5FAC51B
:102AB000DDDEBDDE7CD65BCE9CD6FDE6BDDE5BCE2C
:102AC0001AC6BCD6BDDE9DD69CD6BDD6DDDE7CD674
:102AD000FAC5FAC5F9C598B5B9BD98B590A412BDA7
:102AE000D5D5B5D5D5DD16E636E652C532C5F4D511
:102AF000D4D573CD12BDD5DD16DEF6DD16DE15DEBE
:102B0000F5DDF5DDD5D5D5D5F5DDF5DDD5D5D5D5D5
:102B1000D5D5B4D574CD53C553C5B5D5B5D5D5D553
:102B200016DEF6DD94CD94CDD5D5D5D516DE94CD73
:102B3000F2BC8C8B27624B834FA4F1BCF2BCD1B4A6
:102B40006FAC12BD73CD73CDD4D515DE36E636E647
:102B500036E615E653CD12C5D5DDB4D574CD94D582
:102B6000B4D5B5D5D4D5D5DD15E636E6F5DD8FB4CB
:102B70004EAC93D5B4D573CD73D573CD93D573CDFA
:102B800094D595CDCE8BF093D08B8F7B36AD5BD625
:102B90009CDEDDE6BDDEBDDEBDDEDDDEDDDEBCDE17
:102BA000DDDEBDDEDDDE9DD69CD63BCED9BD1AC6B0
:102BB0009DD6B9BDD59C538CD59CFAC5DDDE7CD69F
:102BC0003AC6BDDEBDDEBDD69CD67CD6BDDE7CD68B
:102BD000D9C5FAC51AC6B8BDD9BD57AD90AC53C555
:102BE000F5DDB5D5B5D516E616E632C552C5F5DD27
:102BF000D4D573CD32BDD6DDF6DDF6DD15DEF5DDDF
:102C0000F5DDF5DDD5D5D5D5D5D5D5D5D5D5F5DDFC
:102C1000D5D5B4D594CD53C574CDB5D5F6DD16DE76
:102C200016DED5D594CDD5D516DE16DED5D574CD28
:102C3000D1B44FA46349C9726FACF2BCB0B490ACCC
:102C4000D1B433C594D594CDB4D5F5DD36E656E68A
:102C500036E636E6B4D512C594D594D553CD94D581
:102C6000B4D5B4D5D4D5D5DD15E636E615E6B0B481
:102C70004EAC73D5B4D573D594D573D572D593D5E1
:102C800073CDD5D571A4AF8BD08B4E7353941ACE20
:102C90007CDEBCDEBDDEBDDEBDDEDDDEDDDEBCDE5F
:102CA000DDDEDDDEDDDE9CD69CD63BCED9BD1AC690
:102CB0005BCE16A59073EE62B07B57ADDDDE9CD681
:102CC0005BCEDDDEBDDE9DD67CD67CD67CD65CD6EA
:102CD000D9BDD9BD1AC6B9BDF9C5F5A4B0AC93CD5F
:102CE000F5DDB4D594D516E6F5DD32C573CD15DE28
:102CF000D4D593CD32C5F6DDF6DDD6DD15DEF5DDB6
:102D0000F5DDF5DDF5DDD5D5D5D5D5D5D5D5F6DDD2
:102D1000D5D594CD74CD74CDB5D5D5D5F6DDF6DD4C
:102D2000D5D594CD94CDB5D5D5D5D5D594CD74CDB7
:102D300090AC90AC47622762ED9B12BDD1BCB0B4A1
:102D400012BD12C594CDB4D5F5DD36E636E657EEA4
:102D500036E677EED5DD12C594D5B4D574CD94D5CD
:102D6000B4D5B4D5B4D5D4DDF5DD36E636E6D0BC81
:102D70002EA473CDB4D594D594D594D531CDB4DDEE
:102D800053CDB5D554C5AF8BCF830D73B083D9C5A3
:102D90007BD6BCDEDDDEBDDEBDDEFEDEDDDEBCDE26
:102DA000DDDEDDDEDDDE9CD67CD63BCED9BD1AC6AF
:102DB0009CD698B57494B17B738CF9C59CD67CD69F
:102DC0005BCEDDDEBDDEBDDE9DD69CD63BCE5BCED2
:102DD000B9BDD9BD1AC6D9BDF9C5D49C6FA493CDD0
:102DE00015E6F5DDB5DD36EEB5DD12C573CD15DEC4
:102DF000D4D593CD32C5F6DDF6DDD6DD15DE15DE94
:102E0000F5DDF5DDF5DDF5DDD5D5D5D5D5D5F5DDAA
:102E1000D5D574CD74CD94CDB5D5F6DD16DEF6DD01
:102E2000B5D594CDD5D5D5D594CDB4D5B4D5B4D567
:102E30006FAC70AC0E9C065A2B83F2BC12BD12BD57
:102E4000B1B4F2BC53C573CDF5DD36E656EE57EEA0
:102E500036E656E6F5DD73CD73CD73CD94D5B4D596
:102E6000B4D5B4D5D4D5B4D5F5DD36E616E611BD66
:102E70004EA473CDB4D593D5B4D573CD53CDB4D5BD
:102E800053CD74CDB5D52FA46D834D7B6E7B15AD21
:102E9000DDE6BDDEBDDEDDE6DDE6FDE61EE7BDDE30
:102EA000DDDEFDDEBDDEBDDE9CD65CCEFABDD9BD6D
:102EB000BDDEFDDE7CD6FAC55BCEDDDEDDDE9CD67A
:102EC0003BCEFEE6BDDEBDDEBDDE9DD63BCE3BC6C7
:102ED000D9BDD9BDF9C5F9C5B8BDB49C2EA4D5D509
:102EE000F5DDB4D5B4D536E6F5DD11BD73CDF5DD30
:102EF000D5DD53CD74CDD5D5F6DDF6DDF6DDF5DDCA
:102F0000F6DDF6DDF6DDD5D5D5D5F5DDF5DD16DE5C
:102F1000D5D553C553C5B4D5D5D5F6DDD5DDB4D596
:102F200094CDB5D5D5D5F5DDD5D5D5D5D5D573CDFC
:102F30002E9C2EA4B0B46C8B2A834FA412BD32C534
:102F400090AC12BD53CDB4D516E636E656E657EE34
:102F500056E656EEF5DD73CD93D593D5B4D5D4D5DD
:102F6000B4D5B4D5D4DDD4D5D5DD36E636E611C535
:102F70002EA452CDB4D593D5B4D573CD53CDB4D5FD
:102F800074D574CDB5D591AC6D832C734E73F5A407
:102F9000DCDEDDE6DDE6DDE6BDE6DDE6FDE6BCDE4B
:102FA000FDDEFDDEBDDEBDDE9CD67CD61BC6B9BD1A
:102FB0007BCEDDDEDDDEBCD6BDDEDDDEDDDE9CD63D
:102FC0003AC6FDDEBDD69DD69DD67CD61BC61AC69A
:102FD000D9BDD9BDF9C5F9C5B8BDB39C2EA4B4D52A
:102FE000D5DDB4D5B4D536E6F5DD12C573CDF5DD46
:102FF000F5DD73CD74CDD5D5F6DDF6DDF5DDD5D5B2
:10300000F5DDF6DDF6DDF5DDF5DDF5DDF5DDF6DD2D
:10301000B5D553C573CDB5D5F5DDF6DDD5DDD5DD3B
:10302000F5DDF5DDD5D5D5D5D5D5F5D5D5D594CD29
:103030002EA40E9C70AC70ACCD93CD9353C553C5EC
:103040006FACF1BC12BDD5DD36E657EE56EE57EE4D
:1030500056EE57EE15E6B4D594D5B4D5D4DDD4DD0F
:10306000B4D5B4D5D4DDD4DDD5DD16E636E632C52B
:103070002EA432C5B4D5B4D5B4D552CD52CDB4D525
:1030800094D574CDB5D513BD8D8B2C7B4D73B4A465
:103090009CDEDDDEDDDEDDE6BDDEBDDEDDDEBDDEF1
:1030A000FEE6FEE6BDDEBDDE9CD69CD61BC6D9BDC7
:1030B0007CD6FDDEFEE6DDDEDDDEDDDEDDDE9CD6A1
:1030C0003BCEDDDE9CD69CD67CD65CCEFAC5FABD66
:1030D000D9BDD9BD19C6F9C5D8C5939C4FA4B4D5DF
:1030E000D5D5B4D5B4D515DED5D532C573CDF5DD7E
:1030F00016DE94CD74CDD5D5F6DDF6DDF5DDF5DD46
:10310000F5DDF6DDF6DDF5DDF5DDF6DDF5DDF5DD2C
:1031100094CD53C594CDD5D5F6DD16DED5DDF5DDE0
:10312000F5DDD5D5B4D594CDD5D5F6DDD5D533C51A
:103130000E9C0E9CB1B46C8BD1B44FA453C532C558
:10314000B1B4D1BC12BDF5DD36E657EE77EE57EEE1
:1031500056EE57EE36E6F5DDB4DDB4D5D4D5B4D5AC
:10316000B4D5B4D5D4DDD5DDD5DD15DE36E653CD09
:103170004EA411C5B4D5B4D5B4D552CD73CD94D524
:1031800073CD73CD94CD74CDCE936D834D73939CDD
:103190005BD6BCDEBDDEDDDEBDDEBDDEDDDEDDDE62
:1031A000FEE6FEE6DDDEBDDE9CD69CD61AC6FAC57E
:1031B0009CD6FEE6BDDEBDDEDDDEDDDEFDDEDDDE77
:1031C0005BCEBDDEBDD67CD67CD65CCEFAC5D9BD85
:1031D000D9BDD9C51ACE19CEF9C5B49C6FACB4D53A
:1031E000D5D5B4D5B4D5F5DDB4D511BD73CDF5DDE8
:1031F00016DE94D574CDD5D5F6DDF6DDF6DDF6DD3B
:10320000F6DDF6DDF6DDF5DDF5DDF5DDF5DDD5D553
:1032100094CD73CDB4D5F5DDF6DD16DEF6DDD5DD66
:10322000B4D594CD94CDB5D5D5D5F5DD36DE32C542
:103230004FA44FA453C52662CD9353C512BDD1BC34
:1032400053C533C573CD36E636E657EE77EE57EE07
:1032500057EE36E615E6F5DDD4DDF5DDB4D5B4D5AB
:10326000B4D5B4D5D5DDD5DDD5DDF5DD36E694D5DF
:103270004EACF1BCB4D5B4D5B4D552CD94D573D53C
:1032800053CD94D594D594CDEE93AE836E7B72944A
:103290003ACEBCDEDDDEDDDEBDDEBDDEFDE6FDDE22
:1032A000FEE6FEE6DDDEDDDE9CD69CD63BCEFABD3C
:1032B0005BCEDDDEDDDEFEE6FDE6DDDEFDE6FDE627
:1032C0007CD6BDDEBDDE7CD67CD63BCEFAC5B9BD94
:1032D000B9BDD9C519C619CE19CED4A490B4D5D5C7
:1032E000D5D5B4D5B4D5F5DD94D5F1BC94CDF5DD07
:1032F000F5DD94CD73CDD5D516DEF5DD16DE16DE03
:1033000016DEF6DDF6DDF5DDF5DDF5DDF6DDD5D530
:1033100094CD74CDD5D5F6DDF6DDF6DD16E6F5DD1A
:10332000B4D594CDB4D5D5D5F5D5F5D5B4CD12BD9C
:103330002E9C4FA4B5D5ED9B886A53C553C5F2BCEE
:1033400094CD53C573CD16E6F5DD16E636E636E6C2
:1033500057EE36E6D4DDB4D5B4D515E6D4DDD5DDEB
:10336000D4D5B4D5D5DDD5DDD5DDF5DD36E6D4D57E
:103370008FACF1BCB4D5D4DDB4D573CDB4D573CD99
:1033800053CD94D5B5D595CDEE93AE8B6E7B52943F
:103390003ACEDDDEDEDEDDDEBDDE9DD6FDE6FDE61F
:1033A000FEE6DDDEFDDEDDDE7CD69DD65CCEFABD42
:1033B0003AC6BDDEDDDE1EE7FDDEDDDEFDE61EE734
:1033C0009CD69DD6BDDE7CD67CD63BCEFAC5B9BD9B
:1033D000B9BDB8BDD9C5F9C519CEB3A4B0B4D5D55A
:1033E000D5D5B4D5B4D5F5DD94D5F1BCB4D5F5DDDE
:1033F000F5DD94D573CDD5D516DED5D5F6DD16DE43
:1034000016DEF6DDF6DDF6DDF6DDF6DDF6DDD5D52C
:1034100094CD94CDD5D5F6DDF6DD16DEF6DDF5DD01
:10342000D5D5B5D5B5D5D5D5F5D5F5D5F5D553C5BE
:103430004FA4B0AC94CD94CDC972686AB5D553CDC4
:1034400053CD73CD53C5B4D5D5DDB4D5D4D5D5DDE5
:1034500036E616E6D4DDB4D593D5D4DDD5DDF5DD7D
:10346000D4DDD4D5D5DDD4DDD4D5D5DD16E6F5DD76
:10347000B0B4F1BCB4D5D4DDB4D593D5B4D573D53F
:1034800053CD94D5B5D594CD30A4EF8B6E7B318CD4
:10349000F9C5BCDEDDDEDEDEDDDEBDD6DDDEFDE671
:1034A000FEE6DDDEDDDEBDDE7CD6BDDE7CCEFAC531
:1034B0003BCEDDDEBDDEFDDEDDDEDDDEFDE61EE774
:1034C0009CD69CD6BDDE7CD67CD63BCE1AC6B9BD7A
:1034D00098BD98BDB8BDD8C5F8CD939CB0B4F5DD06
:1034E000F5DDB4D5B4D5F5DDB4D5D1BC94D5F5DDD5
:1034F00016DEB4D573CDD5D516DED5D5F5DDF6DD22
:10350000F6DDF5DDF5DDF6DD16DEF6DDF6DDB5D54D
:1035100094CDB4D5F5DDF6DDF6DD16DEF5DDF5DDB1
:10352000D5D5B4D5B4D5D5D5D5D5D5D5D5D5F1BC8A
:103530004FA432BDB4D5D5D5B1B42762D5D594CD7D
:1035400012BD94D553C5B4D5D5DD74CD93CD93D5E7
:10355000F5DD15E615DEF5DD73CD53CDD4D5D5DD1E
:10356000D4DDB4D5D4DDD4D5D4D5D5DD15E615E676
:10357000D0BCF1BCB4D5D4DDB4D5B4D5B4D593D5D5
:1035800052CD73CDB4D594CD90AC0F946D7BF08BB0
:10359000B8BD7BD6BDDEDDDEDEDEDDDEBDDEDDDE42
:1035A000FEE6DDDEBDDE9CD67CCEBDDE7CD6DABDA1
:1035B0001AC6DDDEDDDE1EE7FDDEFDE6FDE61EE70A
:1035C0009CD67CD6BDDE7CD67CD63BCE1BC6B9BD98
:1035D00098BD98BD97BDD8C5F8C57294B0B4F6DD56
:1035E000F5DDB4D5B4D5F5DD94D5D0B494CDF5DD05
:1035F00036E6D5D573CDD5D516DED5D5F5DDF6DDD8
:10360000F6DDF5DDF5DDF6DDF6DDF6DDF5DDB5D56E
:1036100094CDB4D5F6DDF6DDF6DD16DE16E6F5DD85
:10362000B4D594CDB4D5D5D5F5DDD5D5F5D5D1B4B2
:1036300070AC94CDB5D594CD73CDB0B473CD74CDFD
:1036400094CD33C553CD74CDF5DD16E6B4D573CD29
:1036500052CDB4D536E615DEB4D593D553CDD4DDF1
:10366000F5DDD5DDB4D5B4D5D5DDB4D5F5DD36E69B
:1036700032C511BDB4D5B4D5D4DD93D553CDD4D591
:1036800052CD52CDB4D5B4D590AC0F948E83CF83A8
:1036900077B59CD6DDDEBDD6FEDEDDDEDDDEFDE609
:1036A000DDDEBDDEDDDEBDDE9DD6BDDE9DD6FAC52E
:1036B000D9BDFEE61EE7DDDE1EE7FDE61EE71EE7DE
:1036C000DDDE7CD69CD67CD67CD61BC6FAC5B9BDC1
:1036D000B8BD98BDD8C5D8C539D6319490AC36E6BA
:1036E000D5DD94CDB4D5F5DD53CDF1BCB4D5F5DD44
:1036F00016E6D5D573CDB4D516DEF6DDF5DDF5DDF0
:10370000F6DDF6DDF6DDF6DDF6DDF6DDF5DDB4D56C
:10371000B4D5D5D516DEF6DDF6DD16DE16E6D5D542
:10372000B4D594CDB4D5D5D5F5D516DEF6DDB0B487
:10373000B1B494CDD5D5D5D594CD32C574CD94CD75
:1037400073CD53C553C574CDD5DD16E6F5DDF5DD76
:1037500093CD32C593CD15E615E6B4DD94D552CDA3
:10376000D4DDD4DDD4DDD5DD93D5F5DDF5DD36E66C
:1037700052CD11C593D5B4D5D4D5B4D594CDD4DD1F
:1037800053CD12C573CDD5DD12BD2F9CAE8BEF8B03
:10379000739C1ACEFDE6DDDE1FE79CD6BCD6DDDECF
:1037A000DDDEBDDEBDDEBDDEBDD6BDDE9CD6FAC52E
:1037B000D9BDFDDEFEE6DDDEFDE6DDDE1EE71EE751
:1037C000BDDE5BCE7CD65CCE7CD63BCE1AC6D9C5E0
:1037D000B9BD98BDB8C5D8C539D652944FAC16DE20
:1037E000D5D594CD94D5D5DD73CDF1BCB4D5F5DD6B
:1037F00016E6D5D573CDB4D516DEF5DDF5DDF6DDEF
:10380000F6DDF6DDF6DDF6DDF6DDF6DDD5D5B4D593
:10381000B5D5F5DD16DEF6DDF6DD16DE16E6D5D518
:1038200094D594CD94CDB5D5F5D516DE16DEB0B4CD
:10383000D1B4B4CDD5D5D5D5B4D553C594CD94CDCB
:1038400053CD73CD32C573CDB4D516E677EEF5DD25
:1038500015DED4DD11C573CD36E6F5DDB4D5B4D5AE
:1038600032C5B4D5D5DD93CDD5DDB4D5F5DD36E69D
:10387000B4D532C573CDB4D5B4D5B4D594CDD4D5E3
:1038800093D532C552CDF5DD53C50F9C309C2D73B9
:103890007294B7BD1ACEFDE6FEE6DDDEBCDEDDDEEF
:1038A000FEE6DDDEBDDEBCD6BDD69CD69CD61AC6F5
:1038B000F9BDFEE61EE7DDDEFDE6FDE61EE71EE7DE
:1038C000BDDE5BCE7CD65CCE7CD63BCEFAC5B9BD28
:1038D000B8BD98BD97BDB7C5F8CD52944FA416DEBC
:1038E000B5D5B4D594CDB4D573CDD1BCB4D5F5DDB3
:1038F00016DEB4D573CDB4D516DEF5DDF5DDF6DD17
:10390000F6DD16DE16DE16DEF6DDF6DDD5D5B5D52E
:10391000D5D5F6DD16DEF6DDF6DD16DE16E6D5D5F6
:1039200094CD74CD94CDB5D5F5D516DEF5DDB0AC1E
:10393000D1B4D5D5F5DDD5D5B5D594CD94D594CD27
:1039400053CD73CD53C573CDB4D516E636E657EED9
:1039500036E615DEF5DD52CD32C5F5DD15DED4DDFA
:10396000B4D573CD93CDD5DDB4D5B4D5F5DD16E69C
:1039700015DE73CD73CDB4D5B4D5D4DD94CDB4D527
:10398000D4DD73CD32C5B4DD94D570ACCE93EF8B5E
:10399000F08B939CD9C59BD6BDDEBDDEDDDEDDDEC2
:1039A000FDDEFDDEBDDEBDDEBDDE7CD69DD63BCEC2
:1039B000FAC5FDDE1EE7DDDEFDE6FEE6FDE61EE7FE
:1039C000DDDE5CCE7CD65CCE7CD61BCEB9BDB9BD6F
:1039D000B8BD98BD77BDB7C5D8C551946FAC36E6B4
:1039E000D5D5D5D594D5B4D573CDF1BCB4D5F5DD49
:1039F00016DED4D594CDD5D5F5DDF5DDF5DDF6DDD6
:103A0000F6DD16DE16DE16DEF6DDF5DDB5D5D5D52E
:103A1000F5DD16DE16DEF6DD16DE16DE16E6D5D58B
:103A200094CD73CD94CDB4D5F5D516DED5D590AC67
:103A3000D1B4B5D5D5D5D5D5D5D5D5D594D573CD26
:103A400073CD53C573CD53CDB5D536E616E657EED7
:103A500016E6F5DD36E6D4DD32CD52CDB4D5D5DD72
:103A600015E6B4D594D5D4DDB4D5B4D5D5DD15DE01
:103A700036E6B4D573CDB4D5B4D5D4DDB4D5B4D58C
:103A8000F5DD93D531C573D5F5DD53C5AD8BEF8B22
:103A9000108CF08BD4A4B8BD7BD69CDEBCDE9CD64B
:103AA000BDDEDDDEBCD6BDDEDDDE9CD69CD61BC613
:103AB000D9BDBDDEFEE6DDDEFDDEFDE6FDE61EE790
:103AC000BDDE5BCE7CD65BCE5CCE1BCEB9BDD9C590
:103AD000D9C5B8BD97BDB8C5B7C55294B0B416E640
:103AE000D5D5D5DDB4D5B4D573CDF1BC94D5F5DD40
:103AF00015DED4D5B4D5D5D5F5DD16DEF5DDF6DD8C
:103B0000F6DD16DE16DEF6DDF5DDD5D5B5D5D5D577
:103B1000F6DD16DE16DEF6DD16DE16DE16E6D5D589
:103B200074CD73CD94CDB5D5F5D516DEB4D590ACA6
:103B3000D1B4B4CDD5D5F5DDF6DDD5D594CD73CDE5
:103B400094CD53C573CD53CDD5DD36E657EEF5DDB7
:103B500036E657EED4DDF5DD15E652CD12C5B4D507
:103B6000B4D516E6F5DD73CDD4D5B4D5D5DDF5DD08
:103B700056E6F5DD73CDB4D5B4D5D4DDB4D594CD4A
:103B800015DEF5DD73CD52CDB4DDB5D512BD2C7B80
:103B9000CF8BAF83AF83D5A4F9C57BD6DDDEBDDE89
:103BA000BDDEBDDEBDDEDDDEBDDE9DD67CD61AC649
:103BB000B9BD9CD6FEE6DDDEFDDEFDE6FDE6FEE6F9
:103BC000BCD63BCE5BCE3BCE5CD63BCEB9BDD9C5D9
:103BD000D9C5B8C597BDD8C597BD3194F2BC16DE1E
:103BE000D5D5F5DDB4D5D5D573CD12BD94CDF5DDE4
:103BF00015DED4D5B4D5D5D5F5DD16DEF6DDF6DD8A
:103C0000F6DD16DE16DEF6DDD5D5D5D5D5D5F5DD56
:103C100016DE16DEF6DDF6DD16DE16DEF6DDB5D5D1
:103C200073CD73CD94CDB5D5F5DD16DED5D590AC7D
:103C3000B1B4B4CDD5D5F5DDF5DDD5D594CD94CDE4
:103C400094CD73CD53CD53CDB5D516E636E656E6B5
:103C500036E656E636E6F5DDD4DD16E693CD32C51A
:103C600094D5D4DDF5DDF5DD93CDD4DDD4D5D5DD2A
:103C700036E615E693D593D5B4D5D4D5B4CD94CD49
:103C8000F5DD36E615E673D573D5B4D5D6D5D2AC09
:103C90002C732D73D0835294D5A4B8BDDDDEFDE620
:103CA000FEE6DDDEDDDEBDDEBDDEBDDE7CD61AC6B7
:103CB00098B57CD6FEE6FEE6FDE61EE7FDE61EE7CD
:103CC000BCD63BCE5BCE3BCE5CD63BCE99BDD9BD00
:103CD000B9C598BD97BDD8C576BD118C74CDF6DD3C
:103CE000F5DDF5DDB4D5D5D532C512BD94CDF5DD04
:103CF00015DED4D5D4D5D5D5F5DD16DE16DE16DE27
:103D000016DE16DE16DEF6DDD5D5D5D5D5D5F6DD33
:103D100016DEF6DDF6DDF6DD16DE16DEF5DDB4D5F3
:103D200073CD53CD94CDB5D5F5DD16DED5D54FA4E5
:103D30006FA494CDF6DDF5DDD5D5F5DD94D5B4D5FC
:103D400094CD94CD32C573CDB4D516E636E656E69D
:103D500036E656EE56E615DED4DDF5DD36E694D5CC
:103D600011C593CD16E636E615DEB4D5B4D5D4D557
:103D700036E636E6B4D593D5D4DDB4D5D5D594CDD5
:103D8000D5D516E656EEB4DD93D5D5D594CDF7D579
:103D9000D3AC4D7B0D6B5294D18315AD9CD6FDDE1B
:103DA000FEE6DDDEDDDEBDDE9DD6DDDE7CD61AC6BE
:103DB00098B57CD6FEE6FEE6FEE61EE7FDE61EE7CB
:103DC000BDDE5BCE7CCE5BCE7CD63BCEB9BDD9BD55
:103DD000B8BD97BD77BDD8C556B5F08BB5D516DE45
:103DE000F6DDF6DDB4D5D5DD12BD12BDB4D515DED8
:103DF000F5DDB4D5B4D5D5D5D5DD16DE16DE16DEA7
:103E000016DE16DE16DEF6DDD5D5D5D5F5DD16DEE9
:103E100016DEF6DDF5DDF6DD16DE16DED5DD94CD3B
:103E200053C553CD94CDB5D5F5D516DED5D50E9C5D
:103E30002E9C94CD16DED5D5D5D5F6DDB4D594CD52
:103E400073CD53C594CD32C594D516E636E656E605
:103E500056EE56EE56EE36E6F5DDB4D5F5DD36E631
:103E6000B4D5F1BCB4D516E615E6D5DDB4D5B4D5D8
:103E700015DE57EEF5DD94D5B4D5B4D5B4D594D5CB
:103E8000B4D516E657EE36E6F5DDB4D5B4D5D5D5BE
:103E9000B4D574CDAD8B2B7B6C838D8B98BDDCDE64
:103EA0001DE7BCD6DDDE9CD6DDDEFDDE7CD63ACE5F
:103EB000F9C53ACE1EE7DDDE3FE73FE73EDF1EDF16
:103EC000FDDE5BCE5BCE7BCE7CD61BC6BABDBAC553
:103ED00079BD78BD16B5F8D5509C0E9436E6F5DD63
:103EE00036E6F5DDB4D5B4D553C5F1BCB4D5F5DDB2
:103EF00016DEB4D5D5D5F5DDD5DD16DE16E616DE33
:103F0000F6DDF6DDF6DDD5D5F6DDF6DDF6DDF6DD42
:103F100016DEF6DDF5DDF6DD36E616E6D5D594D50A
:103F200073CD53CD74CDB4D5F5DD16DED5D56C8B00
:103F30000E9CD5D5F5DDD5D5F5DDF5DDB5D5B4D5FA
:103F400053CD32C573CD53CDB4D5F5DD36E636E667
:103F500056E656E656EE56E615E6D4DDD4D516E618
:103F600015E653CD73CDD4DD16E6D5DD94D5B4D5A5
:103F7000F5DD56E615E6B4D5D5DDB4D5D5DDB4D539
:103F8000B4D5F5DD56E656EE15E6D4DDD5D5F5DD2E
:103F9000D5D5B4CD94CD50A4AD8B4C83949C9CDEF0
:103FA0001DE7BCD6DDD6BDD6DDDE9CD67BD6FACDF0
:103FB000D9C53BD63FEFFEDE3FE71EDF1EDF1EDF2B
:103FC000FEDE9BCE7BCE5BCE5BCE3BCEBABD99BD3B
:103FD00099BD37B556BDB6C5AE8B12B557E616DEE0
:103FE00036E6F5DDB4D5B4D553C5F1BCB4D5F5DDB1
:103FF00016DEB4D5D5D5F5DDD5D5F5DD16E616DE5C
:1040000016DE16DE16DEF6DDF6DDF6DDF6DDF6DDB5
:1040100016DE16DEF5DDF6DD16E616E6D5D594CD10
:1040200073CD53CD74CDB4D5F5DD16DEB5D58C93F7
:104030000E9CD5D5F6DDD5D5D5DDF5DDD5D5B4D5F8
:1040400032C512BD73CD73CDB4D5F5DD36E636E697
:1040500036E636E656E656E615E6D4DDB4D5F5DDA9
:1040600056EEF5DD53CD73CDF5DDF5DD94D5B4D544
:10407000D5DD36E636E6F5DDF5DDD4D5D5DDB5D5CD
:10408000B4D5D5DD16E656EE36E6F5DD15DE93CD74
:10409000D5D5D5D516DE53C5D1B44B83B0831ACE52
:1040A000DDDE1EE7FEDE7CCE9CD6BDD65BCEFAC53D
:1040B000FAC55BD6FEE6BDDE5FE73FE7FEDE3FE723
:1040C0001EDF9CD67BD65BCE5BCE3BCEBABD99BD08
:1040D00099BDF5AC56BD91A48C83D5D536E616DED8
:1040E00036E6F5DDB4D5B4D553C5D1BC94D5F5DDF0
:1040F00016DEB4D5D5D5F5DDD5D5F5DD16E616DE5B
:1041000016DE16DE16DEF6DDF6DDF6DD16DE16DE72
:1041100016DE16DEF5DDF6DD16E616E6B5D594CD2F
:1041200053CD53CD94CDB4D5D5DDF6DDD5D5ED9BAE
:104130002FA494D5D5DDD5D5F5DDF5DDD5D5B4D510
:10414000F1BC12BD94CD94D5B4D5F5DD36E636E696
:1041500036E636E636E636E615E6D4DDD5DDB4D508
:1041600036E657EEB4D552CDB4D5F5DDB4D5B4D5D9
:10417000B4D516E656E616E6F5DDB4D5D5DDD5DDC3
:10418000D5DDD5DD16E656EE36EE15DE15DE15E686
:10419000F5DDF6DDD5D516DE74CDEE930E6B3ACE99
:1041A000FDE6DDDE9CD6BDD6DDD65BCE5CCE1BCE7D
:1041B0001BCE3BCEDDDE9CD61FE71EE7FEDE5FEFAB
:1041C0001EE77CD69CD69CDE7CD63BCEFAC5BABD1B
:1041D00099BD16AD14B54C834FA436DE16DEF5DD61
:1041E00036E616DED5D5B4D553CDD1B4B4D5F5DD8C
:1041F00016DED5D5F5DD16E6F5DDF5DDF6DD16DEE8
:1042000016DE16DE16DEF6DDF6DDF6DD16DE16DE71
:1042100016DE16DEF5DD16DE16E6F5DDB5D574CD57
:1042200053C553CD94CDB4D5D5DDF6DDD5D56FAC22
:104230004FAC73CDD5D5D5DDF6DDD5DDB5D594D56F
:10424000D1B432C5B4D574CD94D515E636E656E66C
:1042500036E636E636E636E6F5E5B4D5F5DDB4D530
:10426000F5DD57EE36E6B4D573CDD4D5B4D5B4D597
:10427000B4D515DE56EE36E615E6D4DDB4D5D5DD7B
:10428000D5DDD4DDF5DD36E656EE16E615E6D4D5F9
:10429000F5DD36E633C5F6DDB5D5CD9332949CDE3B
:1042A000DDDE9CD69CD6BDD69DD61BC61BC6FAC5E8
:1042B000DAC53BCEFEE6BDDE3EE71EE71EEF5FF74A
:1042C000FEE69CDE9CDE9CDE5CD67CD61BCEB9BDB9
:1042D00098BD36B5CF8B2B7B32C5F5DDD5D5F5DD59
:1042E00036E636E6F5DDD5D573CDB0B4B4D5F5DD1B
:1042F00016DEB4D5F5DD36E6F5DDF5DD16E616DEBF
:1043000016DE16DEF6DD16DE16DEF6DD16DE16DE4F
:1043100016DEF6DDF5DD16DE16E6F5DDB5D574CD77
:1043200053C553CD94CDB4D5D5D516DED5D5D1B49E
:1043300090AC33C5B5D5F5DDF5DDB4D5B4D594CDA8
:1043400090B432C5D5D573CD94D516E636E656EE83
:1043500056E615E615E636E6F5DD94D5D4DDF5DD51
:10436000D5DD16E657EE36E6B4D594D5B4D5B4D53A
:1043700094D5F5DD56EE56E636E6F5DDB4D5D5DD59
:10438000B5D5D4D5F5DD36E656EE36E636E636E674
:10439000D4D5B4D516E616DE73CDB1B47BDEDDEE32
:1043A0009CDE9CDEBDDE7CCE5CCE5CCE5CCE3CCEAC
:1043B0003BCE3BCE7CD6B9BD3ACEBCDEFDEEFDEEAB
:1043C000BCE69CDE5BD6FACDD9C55BCE3BCED9C56B
:1043D000D8C5F4ACEB6A0E9CB3D5D4DD94D5D5D555
:1043E00015DE16E6F5DDD5D573CDB0B494CDF5DD8B
:1043F00015DEB4D5D5DD16E6F5DDF5DD16E616DEFF
:1044000016DE16DE16DE16DE16DE16DE16DE16DE0C
:1044100016DEF5DDF5DD16DE16E6D5DDB4D573CD99
:1044200053C573CD94CDB4D5D5D516DED5D532C50B
:10443000B0B433C5D5D5D5DDB5D574CD94D594CD2F
:104440006FAC12BDD5D594D594D5F5DD36E656EED4
:1044500056E615E615E615E6D5DD93D5D4D5F5DD9A
:10446000D5DD16E636E657EED5DDB4D5B4D5B4D5F0
:1044700093D5D4DD56E656E636E636E6D5DDD5DD0F
:10448000B5D5D4DDF5DD36E636E616E6F5DDB4DD88
:10449000B4D5D4D5F5DDD5D5B4D533C55BDEDCE6F2
:1044A000DCE65AD65BCE5BCE5CCE3BCEFABD1BC6FD
:1044B0001BC61BCEF9C55394D4A45AD65ADE3AD69D
:1044C00019CE39D6B8C577B515AD16AD98BDD9C5D5
:1044D00039D630944C7B32C5F5DDD4DDD4D5F5DD4D
:1044E000D5DDF5DDF5DDF5DD94CD8FAC73CDF5DDF6
:1044F00015DEB4D5D5DD16DED5DDD5D5F5DD16DE78
:1045000016DE16DE16DE16DE16DE16DE16DE16DE0B
:10451000F6DDD5DDD5DD16DE16E6D5DD94CD73CD21
:1045200073CD94CD94D5B4D5D5D516DED5D553C598
:10453000B1B453C5D5DDB5D5B4D5B4D594D5B4D5BE
:104540006FACF1BCB4D594D594D5F5DD36E656E61E
:1045500056E615E615E615E6D4DD73D5D4DDD4DDD3
:10456000D5DD36E636E656E6F5DDD5DDB4D5D4D56F
:1045700093CDD4D536E636E636E636E6D5DDD5DD5E
:10458000D4DDF5DD16E636E615E6F5DD93D5B4DDCA
:1045900015E616E6B4D5B4D5F5DD94D5D4AC77C51B
:1045A0009BDE7AD65AD61AC61AC61BC63BC63BCE67
:1045B0003BCE3BCE77B5CC62CB62519496C5B6C5A7
:1045C00096C596C535B515B552948F7B529476B580
:1045D000F8CD0B73EE9394CD35E6B3DD15DE15DE25
:1045E000D5DDF5DD15DE16DEB4D590B473CDD5DDA1
:1045F00015DEB4D5D5DD16DED5DDD4D5D5DDF5DDBA
:1046000016DE16DE16DE16DE16DEF6DD16DEF6DD4C
:10461000F6DDD5D5D5D516DE16E6D5DD74CD53CD70
:1046200073CD94D5B4D5B4D5D5D516DEF5DD53C547
:10463000B0B453C5F5DD94D5B4D516DE94CDB4D55C
:10464000D1B490ACD5D594D594D515DE57EE36E6D9
:1046500036E636E6F5DDF5DDF5E593D5B4D5D5DD01
:10466000D5DDF5DD36E636E615E615DEF5DD94D565
:10467000B4D5D4DDF5DD36E636E636E6F5DDD4D55F
:10468000D5DD15E616E6F5DD94D552CDD4DDF5E59C
:1046900052CD52C593CD33C532C594D575C5319C25
:1046A0008E8376BD19CE3ACE1AC6FAC51AC61AC678
:1046B0005BCE3BCE7BD6AB5ACB6A55B594C557DEA5
:1046C000F6D537D617D675BD55B531946A5A0C6BE9
:1046D000519C0B732F9C16DE15E635EEF5DD16E6C4
:1046E000F5DD16E6F5DD15E615DEB0B432C5F5DD0F
:1046F000F5DDB4D5F5DD16E6D5DDB4D5D5DDF5DDD2
:10470000F5DD16DE16DE16DE16DE16DEF6DDF6DD6D
:10471000F5DDD5D5F5DD16E616DEB4D574CD53CD71
:1047200073CDB4D5B5D574CD94CDF5DDF6DD32C5F8
:10473000F1BCB4D594CDD5D5F6DDB4D594D5B4D5EA
:1047400012BD90ACB4D594D5B4D5D5DD57EE56E6B0
:1047500036E636E6F5DDF5DD15E694D594D5D5DDFE
:10476000D5DDD4D515DE36E615E6D4DDD4DDB4D5F9
:10477000B4D5B4D5F5DD36E656E636E616E6D5DD33
:10478000D5DDF5DDB4DD73D573CD73D573CD52CDE5
:1047900032CD53CD53CD32C553C5D1B495C5B6CD69
:1047A0006D83695A35B55AD619C63BC65CCE7CCEE8
:1047B0001BC63ACE3AD6D7C5D6CDB5CDD4D56FA483
:1047C000CD8BEE9390A495C5B6CD75BDF3ACCA6202
:1047D000C64906520A7BF6DD15E6D4E556EE36E606
:1047E000F5DDF5DDF5DD15DE15E6F1BC32C5F5DDEF
:1047F000F5DDB4D5F5DD16E6D5DDB4D5D5DDF5DDD1
:10480000F5DDF5DD16DE16DE16DE16DE16DEF6DD6D
:10481000F6DDF6DDF5DD16DEF5DDB4D573CD73CD51
:1048200073CDB4D5D5D573CD73CDB4D516DE53C500
:1048300012BDB4D594D5B4D5F5DDD5DDB4D594D5B8
:1048400053CD6FAC73CD94D5B5D594D516E636E679
:1048500036E615E6D4DDF5DD36E6D4DD73CDD4DD00
:10486000F5DDF5DDD5DDF5DDF5DDF5DDD5DDD4DD19
:10487000B4D594D5B4D516E656EE16E616E6F5DDB3
:10488000D5DDB4D573D573CD73CD93D5B4D5F5DD62
:10489000D5DDD5DDD5DDB4D5B4D5D4D5B5CD95C56B
:1048A000B6CDAA6A2852F4ACB8BDB9BDFABDFAC5F6
:1048B0001AC67BD67AD6D7CDF6D5D5D5AFAC297B5F
:1048C0000973876247620E9C54BDB5C5F6D574C5A1
:1048D000EE93C9724FA457EEF5E5D5E5F5DDF5DDAC
:1048E000F5DD16E6F5DDF5DD16E652CD32C5F5DD72
:1048F000F5DDB4D5F5DD15E6D5DDD4D5D5DDD5D5D9
:10490000D5D5F5DD16DE16DE16DEF6DD16DEF6DDB5
:1049100016DE16DEF5DDF5DDF5DD94D573CD94CD2F
:10492000B4D5D5D5B4D553CD12C532C5F5DD94CDAA
:1049300053C5B4D5B4D5D5D5F5DDF5DD94D594CD35
:1049400094D5B0B432C5B4D5D5DD73CD16E656E6F0
:1049500036E615DED4D5D4DD15E6B4DD93CDB4D579
:10496000F5DD36E6F5DDB4D5B4D516E6F5DDF5DDD5
:10497000D4D5B4D594D5D5DD36E636E6F5DDD5DD2E
:10498000D4D594D593D5B4D5B4D553CDD5DDF6DDF6
:10499000D5DD16DE16DEF6DD94CDD5D574CDD5D5B4
:1049A00017DE13B58A626A5AAC5A328CFABD7CCED5
:1049B0009CD67BD67ADE18D616DE74CDD0B48B8B1F
:1049C000297B6B8B097B6B8BF2B433BD94CD94C583
:1049D00057E6D5D5B4D5B5DD77F6F5E5D4DDF5DD0B
:1049E000F5DD15E6F5DD16E636E693CD52CDD5DDDF
:1049F000F5DDB4D5F5DD15E6F5DDD5DDD4D5B4D5D9
:104A0000B4D5D5D5F5DDF6DDF6DDF6DD16DEF6DD61
:104A100016DEF5DDD5D5F5DDD5DD73CD73CDB4D599
:104A2000D5D5D5DDD5D573CD12C5F1BC94CDD5D5B1
:104A300094CD94CDB4D5F5DDF5DDB4D573CD94CD5D
:104A4000B4D512BDD1BC94D5B4D573CDF5DD16E681
:104A500015E6F5DDF5DDF5DD15E6D4DDB4D5B4D527
:104A6000D4DD15E636E6F5DDB4D5D4DD15DE15E684
:104A7000F5DDD5DD94D594D515DE16E6F5DDD4D576
:104A8000B4D5B4D594D5B4D594D573CDD5DD94D55E
:104A9000F5DD73CDD1B4F1B4B4CDD5D5F6DDD5D532
:104AA00094CD17DE0F9424310529CD5A98B53BC615
:104AB0005BCE7BD6B7C5D6CD37E6F5DDD4D5B0B461
:104AC0004A834B834B8BED9B73CD53C512BD53C5AE
:104AD00073C5D4D5F5DDD5DDD5DD16E636E616E6AB
:104AE000F5DDF5DDF5DD36E636E6B4D553CDD5DDBD
:104AF000F5DDD4DDF5DD15E615DEF5DDD4D594CD97
:104B000094CDB4D5F5DD16DEF6DD16DE16DEF6DD67
:104B1000F5DDD5D5D5D516DEF5DD73CD73CDB4D5A0
:104B2000D5DDF5DD16DED5D573CD32C553C5B4D58B
:104B300094D594CDD5D5D5D5D5D573CD53C573CD15
:104B400094D573CDD1BC73CDB4D573CD94D5D5DD0B
:104B5000D4DDD4DDD4DDD4DDD5DDD4DDB4D5D5DDF3
:104B6000D5DDD5DD15DE15E6D5DD94D5D5DD15DE33
:104B7000F5DD15DEB4D573CDD5DDF5DDF5DDB4D5C8
:104B800093D5B4D573D552C553CD94D574CD74CDCA
:104B9000B4D5EE9B0E9C4FA494CDF6D5F5DDD5DDB6
:104BA000D5D5D5D5D6CDE74987391284B9B53CCE10
:104BB0003BCEF9C519D6F7D516DED5DD93CDD5D5C3
:104BC00053C590B4B0B453CDD5DD73CD53CD93CD93
:104BD00011BD52C593D516E6F5DDD5DDF5DD16E63A
:104BE00036E616E6F5DDF5DD15E6F5DD73CDD5DD4A
:104BF000F5DDD5DDD5DD15DE15E615DED5DD93CD8C
:104C000073CDB4D516DE16DE16DE16DE16DE16DE23
:104C1000D5D5B4D5D5DD16DED5DD93CDB4D5D5D576
:104C2000D5D5F5DD16DED5DD94CD53CD53C573CD89
:104C300073CD94D5D5D573CD73CD73CD53C553CD29
:104C400094CD94D532C553CDB4D593CDB4D5F5DD3F
:104C5000F5DDD4DDB4D573CD73CD73CD93D5D5DD6E
:104C6000D5DDD4D5F5DD15DEF5DDB4D5B4D5F5DD6E
:104C7000D5DDF5DDB4D573CDD4DDB4D5B4D593D5BC
:104C8000B4D5B4D553CD32C553CD94D594D5B5D57F
:104C900074CD6FA474CDB5CDD5D5D5D5B4D5B4D597
:104CA00094D578EE38DE2C73F08B37AD3BC65CCEF6
:104CB0007CD65BD619D6EF9391B477F6F6D5F6DDB0
:104CC000F6DDD6DDF6DDD6E5B5DDD4DD73CD32C556
:104CD00072CD73CD73CD73CDD5DDD5DDB4D5F5DD16
:104CE00036E656E615E6F5DDF5DD36E693D5D4DD98
:104CF000F5DDD4DDD4DDF5DD15DE15DEF5DD93CD96
:104D000073CDB4D516DE16DE16DE16DE16DE16DE22
:104D1000D5D5B4D516DEF5DDB4D5B4D5D5D5D5D534
:104D2000D5D5D5D5D5D594CD73CD73CD53CD53CD64
:104D300073CD94CDB4D532C573CD94CD53C553C581
:104D400094CDB4D573CD12C5B4D593CD93CDD5DD67
:104D5000D4DDF5DDB4D573CD73D5B4D5D4DDB4D5FC
:104D600093D5B4D515DE16E6F5DDB4D594D5F5DDCD
:104D7000B4D5B4D573CD73CDD5DD94D573CD93D5DE
:104D8000B4D573CD32C573CD94D574CD94D574CDCF
:104D900094CD74CDB5CDF6D5B5CDF5D5D5DDD4DD75
:104DA00057EED5D5AD8B72A4B7C5FAC57DD67DD6E5
:104DB0003CCEFACD11940C7B50AC37EED6D5F6DD57
:104DC000D6DD17E617EEF6E5F6E5D5DDD4DD93D5AD
:104DD00072CD52C552CD73CD94D5F5DD36E6D4DD16
:104DE000D4DD15E656EE36E6F5DD36E6B4D5F5DD6E
:104DF000F5DDD4DDB4D5D4DDF5DDF5DDF5DD93CD20
:104E000053CDB4D5F5DD15DEF6DD16DEF6DDF6DDC7
:104E1000B4D5D5D536E6F5DD93CDD5DDD5D5D5D50B
:104E2000D5D5B4D5B4D573CD73CD94CD73CD94CD44
:104E3000B4D594CD73CD32C5B4D5B4D532CD53D518
:104E400094D5B4D593CD93CD93CD93CD93CDB3CD10
:104E5000D4D5D4DDB4D573D553D594DDD5DDD5DD2A
:104E6000B5D5B4D594D5D4D5F5DDB4D573CD93D51A
:104E7000D4DDD4DD73CD93D5D4DD93D552CDB4D567
:104E8000B4D553CD54CD33C594CD73CD73CDB4D5F6
:104E900093CDD4DDF5DDB4D5B4D5F5DD38D679DEE6
:104EA000739C2E73749CB9BD5BCE19BE5ACEF7D5D8
:104EB000B6DD0FB44BA3EDB30DB472DDB5E613D67A
:104EC000F4D515DE16E617E617EEF6E5B4DDB4DD2B
:104ED00073D552CD73CD11C574CD95D5F4DDF5DD07
:104EE000D4DDD4D5F5DD36E636E6F5DDB4D5D4DD52
:104EF000F5DDF5DDD4D5D4D5F5DD16E6F5DD73D5D4
:104F000032C593D5D5DDF6DDF6DD16DE16DEB5D578
:104F100094CDF5DD16E6F5DDD5DDD5DDD4D5D4D5DA
:104F200093D593D5B4D5D4D593D573CD73CD93D52F
:104F300094CDB4D574CD74CDD5D574C573D594D571
:104F400074D553CD73CD73CD93CDF4DDB3CD93CD67
:104F500073CD93D5D4DDB4DD73D553CDB5D5B4D5EC
:104F6000B4D5B4D594D5B4D5D4D5B4D5B4D5B4D5F9
:104F7000D4DDB4D573CD93D5B4D573D553CDB4D5D5
:104F800073CD53CD74CD53C573CD73CDB4D573CD1F
:104F9000B3D5F4DDD4DDD4D5B4D516E618D66D7B03
:104FA000CC6AB4A4B9C5F9C53ACE7AD6F7CDF3BC6C
:104FB00091BC2FBC4FC46FCCEDB32DBCD2DD35EE10
:104FC00076EE15E6B5D5F6DD17E616E616E6D4DD7F
:104FD00093DD52CD73CD32C553C553C593D5D4DDC2
:104FE000F4DDD4DDD4D5F5DD15E636E6D4D5B4D57B
:104FF000B4D5D5D5F5DDF5DDF5DDF5DDD4DD73CD45
:1050000032CD93D5F5DDF5DDF5DDF6DDF5DDB5D594
:10501000B5D5F6DD16DED5DD94D5B4D5B4D5B4D589
:10502000D4D5D4D5D4D5D4D5B4D573CD93D5B4D522
:10503000D5D532C553C5B5D532BD53C512BD53C53F
:1050400074CD94CD94CDB4D594D573CDB4D593D53A
:1050500073CD73CD93D594D573CD32C574CDB4D5FE
:10506000B4D5B4D5B5D5B4D5B4D5B4D5B4D5B4D5F7
:10507000B4D5B4D5B4D5B4D5B4D594D593D594D549
:1050800053CD94D594D553CD32C573CD93CD93CD17
:10509000F4DDB4D594D594CD98EE74CD495A6A5ABE
:1050A000F4AC97BDB8C539D65ADEF8D5F3BCB1BC5F
:1050B0006FBCB0CC8FCC2DC40DC40DC4ECB36FC489
:1050C00052D515E657EEF6DDD5D5D5DD15E6D4E596
:1050D00015EEF4E5B4D593CD93C552BD52CD73CD45
:1050E000B4D593D593CD93D5D4D515DE15E6D4DDBF
:1050F000B4D5D4D5F5DDF5DDF5DDF5DDD4DD73CD45
:1051000032C593CDD5DDF5DDF5DDF6DDD5D5D5D5CB
:10511000D5D5D5DDB4D594D594D5B4D5B4D5D5D51C
:10512000D5DDD5DDD4D5B4D5B4D5B4D593D5D5DDBD
:1051300093D553C573CD74CD73CD74CD16D674BDD0
:1051400053BDB5CDB5CD74CD74CDB4D594D594D56E
:1051500073D552CD52C573CD52C511BD52CDB4D504
:10516000D4D5B4D5D4DDB4D594D5B5D594CD94CD1E
:1051700094CD94D5B4D594D594CDB4D5B4D594D597
:1051800033C594D5B4D573CD12C552C552CDB3D560
:10519000B4D593CDB4D537DE53C54862E85193A456
:1051A000B7C5B7C5D8C5BAE66D832C8BB1C4B1CC31
:1051B0008FCCAFCC6ECC2DC46ED42DCC0ECCEDC329
:1051C000ACB3EDB311CDF5DD36E636E6F5DDB4DD95
:1051D00015E615E6D4D5B4CD93C572BD32CD32C532
:1051E00052CD73CD73CD73CD93D5B4D536E6F5DD01
:1051F000D4D5B4D5F5DD15DEF5DDF5DDD4D552CD4C
:1052000032C573CDD4D5F5DD15DE16DEB4D5D5D5D2
:10521000F5D5D4D5B4D5B4D5D4D5F5DDF5D5F5DDF2
:10522000F5D5D5D5B4D5B4D5B4D5D4D5D5DD53CDF4
:1052300012C5B4D573CDF1BC94CDB5D5DDFF5BEF10
:10524000F6C513B574C594CD74CDD5DD94D574D59C
:1052500053CD12C511BD73C573C511BD11C594D50C
:10526000D4DDB4D5B4D5B4D5B4D5B4D5B4D5B4D5CE
:1052700094CD94CD73CD53C533C573CDB4D574CD12
:1052800053CDB4D5B4D594D532C532C552C572CD3F
:1052900094CD94CDD5CD17D6896265411294D8C5E9
:1052A00019CE39CE9ADEBAEE2C8B4C9BB1D4B0D449
:1052B000AFD48ECC6ECC8FD48FDC2ED450DC91E466
:1052C0006FD4CDB38BA3ECA3F0BC15DE36E6F5DDD1
:1052D000D4DDD5DDF5DD15DED4D5B3CD73CD53CD1D
:1052E00052CD73CD93CD73CD93CDB4D5D4DDF5DD53
:1052F000F5DDD4D5D4D5F5DDF5DDD4D5B4D552C59D
:1053000032C553CDD4D5F5DDF5DDF5DDB4CDD4D53D
:10531000F5DDF5DDF4DDD4D5D4D5F4DD16DED5D557
:10532000B5D5B4D5B4D5B4D5B4D5B4D593CD32C5EF
:1053300073CD12C512C5B4D5B4D553CDFFFFFEFF52
:10534000FFFF1BEF74BD33BD95CD33C595D594D507
:1053500094D532C5F1BC32C573CD52BDD1BC53CD4D
:10536000B4D5B4D594D5B4D5B4D5B4D5D5DDB4D5EC
:1053700094CD73CD32C512BD32C553C5B4D553C516
:1053800073CDB4D594D5B4DD73D532CD52CD52C5DD
:1053900073CD94CD16D68D8365396E7B99BD57B587
:1053A000B07BD8BDBBE6BAEE2B8BCDB3B0DC8FD4CF
:1053B000AFD4AFD4AECCAFD48FD490DC90DC90DC43
:1053C000B0D4D0DC8FCCECAB8A9BAB9373CD16DE24
:1053D000D5D5F5D5F6DD16DED5DDD4DD94D594D55D
:1053E000B4D5B4D593D573CD93D5B4D593D5D5DDF8
:1053F000F5DDD5DDD5D5F5DDF5DDB4D5B3D552C5B3
:1054000032C572CDD4D5F5D5D4D5D4D5D4D5D5D54E
:10541000F5DDF5DDD4D5D4D5D4D5D4DDF5D5B4D5E9
:10542000B4CDB4D5D5D5D5D5B4D594CD12BD73CD25
:1054300073CD32C594CDB5D532C5B1B4FFFFFFFFF2
:10544000DEFFFFFFFFFFBAE654C554C574CD95D506
:10545000B5D553C5D1B412BD73CD73C5D0BC11C57C
:1054600093D5B4DD94D593D593D5B4D5B4D573CDB8
:1054700073CD53C512BD12C573CD73CDB4D512BD56
:1054800074CDD5DD94D5B4DDB4DD52CD52CD52C549
:1054900032BD95CD74BD45312952D4A4DABDD27B3D
:1054A0004B4297B5DFFFF3BCCA8AD1D4D1DC8FD48D
:1054B0008ED4AFD4F0D4F1D4B0D4D1DCB0D4D1DC1C
:1054C000F1DCD0DCCFDCD0D42DBC2A93EDA316DEEA
:1054D00016D6D6D5D5D5B5DDB5DDB5E5B4D5B4D5BB
:1054E000B4D5B4D593D573CD93D5B4D5B4D5B4D5FF
:1054F000D5DDF5DDD5DDD4D5B4D5B4D593D532C55C
:1055000011BD52C5B3D5D4D5D4D5B4D5D4D5D4D501
:10551000D4D5D4D5B4D593D5B4D5F4DDB4D594CD04
:1055200094CDB4D5D5D5D5D594CD53C574CD53C56B
:10553000F2BCB5D5D5D5D1B412BDB5CDFFFFFFFFB7
:10554000FFFFFFFFFFFFFFFF7DFF78DE54BD33BD90
:1055500054C513BDD1B432C594CD53C5F1BCF1BC13
:1055600073CDF5DDD4DD73D593D5B4D552CD12C549
:1055700032C532C5F1BC32C573CD53CDB4D5D1B42B
:1055800074CDD5DD94D594DDD4DD73D552CD52C51F
:1055900053C5D6CD6D7BA318D07B7BD679AD2F6359
:1055A000338C3DEFF8D54C8B90C490CC8FD4AFDCCE
:1055B000AFDCD0DCF0DCB0D4B1D4D1D4F0CCD0CCE2
:1055C000D0D4D0DCCFE4F0E48FD4ECB3AC9B57E67E
:1055D00037DED6CDD6D5D5DDB5E595E5B4D5B4D590
:1055E000B4D593D593D593D593D593D5D5DDB4D5EF
:1055F00094D5B4D5B4D594CD93CDB4D593CD32C58F
:10560000F1BC11C573CDB4D5D4DDD4DDB4D5B4D5DA
:10561000D4D5D4DDD4D593D5B4D5D4DDB4D593D5F4
:1056200093CDB4D5D5D5B4D573CD33C553C553C5F6
:10563000B5CD54BDF2B4D6CDFAEEDEFFFFFFFFFFCD
:10564000FFFFFFFFFFFFFFFFFFFFFEFF7CF737D6E7
:1056500033B5F2B433BD33C553C574CD11C552CD86
:1056600093D5B4D593D5B3D593D553CD32C512C503
:1056700032C5F1BCD1BC53CD73D552CD73CDD1B4AD
:1056800073CDB4D5B4DD94DDB4DD93D593D532C5F7
:1056900094C554BDA6418739D8C55BCE5CC6B8B5A4
:1056A000BCDE19D6AE9B4FB411D58FCCAFD4AFDCD6
:1056B000AFDC8FD48FD46FCC6FC46FBC8FBC8EC463
:1056C0006ECC8ED4AFE4AFE4AFDCB0D44B9353CD0B
:1056D0005CFFB6CD75CDB6D5D6E595DD94D5B4D500
:1056E000B4D5B4D573CDB4D573CDB4D5B4D5B4D504
:1056F000B4D573CDB4D5B4D593CDB4D5B4D512C586
:10570000F1BCF1BC52CDD4DDB4D573CD73CDB4D5DD
:10571000D4DDB4D5B4D5D4D5D4D5B4D552CD73CD8C
:1057200093D5B4D5B4D553C533C553BD33BD33BDFF
:1057300074BD17D61BF7FFFFFFFFDFFFFFFFFFFF63
:10574000FFFFFFFFFFFFFFFFFFFFFFFFFEFFFEFF6B
:105750005CF717D633BD12BD33C554C573CD93CD99
:10576000D4D5D4D573CD73CD93D593D553CD52CD58
:1057700073D594D593D593D573D553CD94CD12BD10
:1057800074CDB4D5B4DDB4DDB4DD73D593D593CD8C
:1057900053C5D2ACE3288E7B5AD65BCEBCDE9BDEF3
:1057A00035BD2C8BB1C4F1D4D0D410DDAED4AEDC79
:1057B0006ED44ED46FD44FC44EBC4EB42EB44EBC37
:1057C0004EC44ECC4ED46EDC8FDCB0DC90C40FAC3B
:1057D00099F61BFFD6D574C5B5CDD6D593D5F5E5CD
:1057E000B4D593D5B4D5B4D573CD73CD94D5B4D544
:1057F000B4D573CD53CDB4D594CDD5D5D4DDB0BC0F
:1058000090B432CD73D573D553CD73D5B4DDB4D543
:1058100093D594D5B5D5D5DD94D533C552CD73D5B3
:10582000B4D593CD53C533BD12BDF2B4B5CD99DE19
:105830007DFFFFFFFFFFDFFFDFFFDFFFFFFFFFFF5A
:10584000FFFFFFFFFFFFFFFFFFFFFFFFFFFFDEFF89
:10585000DEFFFEFF3BF7D6D534BD34C532BD52C5A1
:1058600094CDF5D5F5D5B4CD52C5F1BC11BD52CD11
:1058700093D5B4D5B4D573D552CD73D593CD32C5A8
:1058800093D594D594D5D4DDD4DD73D573D573CDAC
:1058900094CD71A4C22015AD7BD6BCDE58DE34C5D4
:1058A0006D9391CC90D4F0DCCFD48ECCAED48ED48A
:1058B0006ED44ED44ECC2EC42EBC4EB44FC44EC467
:1058C0004EC44ECC6ED48FD48FD48FCCB1D490C470
:1058D00050B4F6DDFAF637DE74BDF5C593D5D4DDE8
:1058E000B4D594D5B4D573CD93CD94D594D5B4D542
:1058F00094D553C5F1BC94CD73CDB4D5B4DD8FB47C
:105900008FB452CD73D573D553CD73CD53CD94D5BC
:10591000B5D5D5DDB5D594CD74CD74CDB4D594CDF4
:1059200073CD53C5F2B412B5D6CDDAEEBDFFDEFFAE
:10593000FFFFFFFFFFFFFFFFFFFFFFFFFFFFFFFF77
:10594000FFFFFFFFFFFFFFFFFFFFFFFFDEF7FFFF90
:10595000FFFFDEFFDEFFDFFF3CFF38DE94C533BD17
:1059600032B553BD74C594CD73C553C532C553C547
:10597000F1BCF1BC32CD73CD73D552CD93CD52C5B0
:1059800073CDB4D5B4D5B4DDB4DD73CD93CD33C50B
:10599000D5D58D834539B7C57BDE5BD6B1BC8C9B35
:1059A000D1CCB0D4F0E4CFE4AEDCAED48ECC6ECCAF
:1059B0004ECC0DC40EC42EBC6FBCD0C490D4B0CCA1
:1059C00090CC8FCC6FC44EC46FC490CCB0D4B1D443
:1059D000D2CC91BCB1B457DE36CE73B5B4DD73CD45
:1059E000D4D5D4D573CDB4D593CDB4D594D594D5E1
:1059F00074CD53CDB0B473CD53C594CD73CD6FACCE
:105A000090B452CD53CD53CD53CD53CD94D594D5E1
:105A1000B4D5B5D594CD54C553C574C594CD33BD57
:105A2000D1ACF2B4F6D55CF7DEFFDEFFFFFFFFFF7F
:105A3000FFFFDFFFDFFFFFFFFFFFFFFFFFFFFFFFB6
:105A4000FFFFFFFFFFFFFFFFFFFFFFFFFFFFFFFF66
:105A5000FFFFFFFFFFFFFFFFFFFFFFFFBDFF1BEF8C
:105A600037D695C513B5F2B433BD53C573C5B5D597
:105A700094CD73CD93D553CD12C5F1BC93CD53C501
:105A800053CDB4D5B4DDB4DDB4D594D594CD53C5E0
:105A900094CDC649E75119D69BDE56B5ACABD0CCF8
:105AA000B0D4AFDCAFDCCFDC6ECC8ECC4DBC4EBC0A
:105AB0004FBC4FBC4FBC0EB4EDA3EDA3EEB30FB47F
:105AC0002FB46FBC90BCB0C490C46FC44FC4B0D4EA
:105AD00090CCF2D490BC6FAC52BD53BD73CDB4D555
